:100000006F10905700000000F2010000F4010000A2
:1000100000000000000000000000000000000000E0
:1000200000000000000000000000000000000000D0
:10003000761D000000000000761D0000000000009A
:10004000761D0000761D0000761D0000761D000064
:10005000761D0000761D0000761D0000761D000054
:10006000761D0000761D0000AE0E0000761D00001B
:10007000761D0000761D0000761D0000761D000034
:10008000761D0000761D0000761D00008A0F00001E
:10009000761D0000761D0000AE0F0000000000007D
:1000A000511126C022C206C4828282441244A24058
:1000B000310182802A86014593F6150091C232955E
:1000C00085810606F5F9828000000000634E050276
:1000D00063C305042E86AA857D5515C285466378BF
:1000E000B6006356C00006068606E36CB6FE014500
:1000F00063E4C500918D558D85820582F5FA828075
:100100008682C93F2E8582823305A04063D70500D1
:10011000B305B040C1B7B305B0408682653F330533
:10012000A0408282868263C70500634905005D376F
:100130002E858282B305B040E35B05FE3305A04007
:10014000513F3305B040828200003D432A876373EC
:10015000C3029377F700BDEFADE5937606FF3D8AC6
:10016000BA960CC34CC30CC74CC74107E36BD7FE10
:1001700011E28280B306C3408A0697020000969679
:100180006780A6002307B700A306B7002306B700C1
:10019000A305B7002305B700A304B7002304B700E5
:1001A000A303B7002303B700A302B7002302B700DD
:1001B000A301B7002301B700A300B7002300B700D5
:1001C000828093F5F50F93968500D58D9396050162
:1001D000D58D61B793962700970200009696868288
:1001E000E78086FA9680C1171D8F3E96E374C3F8A8
:1001F000A5B701A0B707EFBE37E700E09387070870
:100200003CC701A0B7070240C8DFCCDB370702407C
:1002100081476398C700370702401C5BF99B1CDBD2
:100220008280145B93E6160014DB544393E60620A9
:1002300054C3144393F60620EDDE8507C207C1833D
:10024000C9BF373701401E27898BF5DF4205418141
:100250004AA7373701401E2793F70708EDFF828032
:10026000EFF21FE4373701401623FD779387F77FBE
:10027000F58F2A841EA3A14537150140EF10307079
:10028000914537150140EF10D06F22855D3F31BD9C
:10029000EFF21FE1373701401623FD779387F77F91
:1002A000F58F2A841EA3A14537150140EF10706D0C
:1002B000914537150140EF10D06C22855937F5B3C1
:1002C000373701401E27898BF5DF4AA737370140B2
:1002D0001E2793F70708EDFF8280EFF27FDC3737A8
:1002E00001401623856793870780D58FC207C18396
:1002F0002A841EA3A14537150140EF10506891458F
:1003000037150140EF10F06722855D3F79BBEFF2B2
:100310003FD951112A841305A00236C02EC432C21F
:10032000853F22855D3F12463285453F1305B00269
:100330008537A2452E85553782463685793F130588
:10034000C002B937310195B3EFF29FD537040020D1
:100350002E83B28461112A8793D586001306C40EBA
:10036000814763CF9704C145371501401AC23AC08F
:10037000EF103061024712431386F4FF1315070193
:100380004181931603012A96C1824206B6854182B5
:10039000BD3FA14537150140EF10705EA68563D3C0
:1003A000040081458605C20505461305C40EC181BA
:1003B000913DC14537150140EF10705C2101F5B149
:1003C0008507C2070CA214B2C187090659BFEFF214
:1003D0003FCD370400202E87B28461112A8313D6C3
:1003E00086009305C40E814763CF9704C145371536
:1003F00001403AC21AC0EF10D05812470243938608
:10040000F4FF93150701C18113160301AE964182D3
:10041000C2063285C182E53DA14537150140EF1086
:100420001056A68563D3040081458605C20505469E
:100430001305C40EC181F933C14537150140EF10D2
:10044000105421019DB18507C20790A194B1C187C5
:10045000890559BFEFF2DFC401118545414502C04E
:1004600002C202C402C602C802CA02CC231E010094
:10047000EF10706585450565EF10F064854505450D
:10048000EF1090620D44A147C1448A8537150140A1
:100490007C8026C422C2EF1030468A853715014081
:1004A000648026C422C2EF10304593070002E14465
:1004B0008A85371501407C8026C422C2EF10D043C4
:1004C000930700048A85371501407C8026C422C228
:1004D000EF109042B7C704013EC6B70700023ECAFC
:1004E0006C009D4737350140FC8602C802CCEF10F6
:1004F00010650546894537350140EF10106985457F
:1005000037350140EF10D066371702405C4BC145CC
:100510003715014093E717005CCBB70702400D6722
:100520001307070B23A807029386070398DBB73747
:100530000140B1079CC6EF10D0444545913B1305DF
:100540008007EF20401E1305000C9933130530027D
:10055000013B1305100C2D3B414519331305500C7D
:10056000053B1305E003ED3913058002D53913056A
:10057000700C393B13056008E53113056003093B36
:100580001305800EF1391305A00319331545C93938
:1005900013057003F5390145E1311305A003CD3989
:1005A0001305500575391305100BDD3101454D3923
:1005B00061457D311305600BE13921455531130546
:1005C0002008793913057002613913056002C931B9
:1005D000054579311305000E6539A14537150140F0
:1005E000EF10F0390D650546C1451305453219393F
:1005F0002945EF2040131305100E5939A145371531
:100600000140EF10D0370D650546C1451305453152
:10061000D53E2945EF2020111305100B9539130500
:10062000000A3D3913050002A5314D459531294594
:10063000EF20600F13059002A1392945EF20A00E8D
:10064000C14537150140EF1090330561B9BC2392C5
:10065000A1902393B1908280B70700202390A70038
:100660008280B70700202394A70E8280EFF25FA359
:10067000931725003E95B707002083D7870E3111C9
:100680003704002013D7870093F7F70F3EC6B7074C
:10069000002083D707003AC4814213D7870093F71D
:1006A000F70F3EC28D67938747E13AC081463EC847
:1006B0001303C40E8547B3905700B6850146C24464
:1006C000B303C5002E87A69383C303009387150049
:1006D0008905C207C205B3F31300C183C1811A970C
:1006E0006388030682449A9704A3124798A30506D9
:1006F0009547E316F6FCA906C206C182930760047B
:100700008502E399F6FAC14537150140EF107027CD
:1007100003D5419083D56190130645004206938628
:100720006500C206C1824182DD36A1453715014010
:10073000EF10F02405461305C40E93056004D93468
:10074000C14537150140EF10902351016FF0FF951F
:10075000A2449A9704A3324751BFEFF27F942A84B0
:100760000305040019E16FF05F9409371387419086
:100770001E23050499071EA3E5B7EFF27F927111BE
:10078000AA842EC037150140C1453284EF10701F76
:10079000824626862685B6859D3E22853D3EC145FC
:1007A00037150140EF10B01D11016FF01F90EFF2EF
:1007B0003F8FB7030020AE82B68451112A83935530
:1007C000870081479386C30E13941700420441802B
:1007D000639FC704C1453715014016C41AC23EC005
:1007E000EF10301A8247A24212431386F7FF938616
:1007F000F4FF96961A96C206420696851A85C1821D
:1008000041823136A14537150140EF105017B7032B
:1008100000201385C30E2686A285EFF0BF9EC1453A
:1008200037150140EF10B01531016FF01F88338587
:10083000860005044204418085070CA13694C20756
:1008400018A0C18351B7EFF2BF85BA841317050111
:10085000211141873AC02ACA139705010245931313
:100860000601418793D3034136842EC832C6BA8528
:10087000A6861E863AC21EC4C13C4243A2439305CB
:10088000F4FF9A950245C2051E86A686C1856D3C79
:100890001247024542044184A6862286BA85053E57
:1008A000B247D24212471385F7FF16954205A68636
:1008B0002286BA854185213E61016FF00FFFEFF27C
:1008C0002FFE1301C1FD2A846313C50263D5B60050
:1008D000AE87B685BE8685063386B6404206BA86A2
:1008E00041862285ED34130141026FF00FFCB28482
:1008F0006390D5026354A6003284AA841386140040
:10090000018E4206BA8641862285EFF0FFA3E1BF41
:10091000B383D54063D4D500B383B6406357940AFC
:10092000B382844063CD720AAE87A2853E84B387CA
:10093000B440C207C1833EC01316040113950601DB
:1009400083170100418241816357D40A3306C540B1
:100950004206418632C2054632C485876344D400CC
:10096000FD5636C4E3C1B4F8131304019396050190
:100970003ED01ECE16CC3ACA13530301C1823A862A
:1009800063DD7206B6851A8536C81AC6FD33324352
:10099000C2465247E242F24382571246918F139663
:1009A0000701418293170601C18763DB0700824775
:1009B000B2972246C207C1873304C3004204418470
:1009C00093851600C205C18571BFB302944063C808
:1009D0007200B687A686BE84AE87A2853E8463D8A1
:1009E000B600AE87B685A2862684BE8489B7A68760
:1009F000B684BE862DBF098EA1BF9A8536851AC8DA
:100A000036C6A53B8257F243E24252474243B246C2
:100A100069B7EFF2EFE893170601C18305471D8F11
:100A200036844207B306F0401301C1FD86064187B4
:100A30003AC49394050113970601C1804187B38599
:100A400097003AC6131705014183C2053A8532C89B
:100A5000C18122863AC03EC20D33924702452286AA
:100A6000B385F440C205C181093B02479247228603
:100A7000A6853385E700420541810133024792474D
:100A80002286A6853305F74042054181FD31224784
:100A90004243814763C66700130141026FF0EFE0F4
:100AA00063410702B2467D1342038906C206C18232
:100AB000139606013697418642071353034132C607
:100AC00041878507C207C1833EC2860785073E97D7
:100AD0004207418782473AD0124722861ACEB38214
:100AE000E70093170301C183B386F400C202C20674
:100AF00093D20201C1821685B68516CC3EC436C893
:100B0000AD3912478247C2462286998FC207C183F8
:100B1000B6853E853ECA9531A247E2422286B3861B
:100B2000F440C206C1821685B68536C8B931C246C0
:100B3000D2472286B6853E85893182472247228662
:100B4000B382E7009247C20293D20201B386F40057
:100B5000C206C1821685B68516CA36C839392247FB
:100B60008247C2462286998FC207C183B6853E85D9
:100B70003EC821319247D2422286B386F440C20653
:100B8000C182B685168536C4CD3EC247A2462286AE
:100B90003E85B685DD368317410002577243DDBDC1
:100BA000EFF20FD0130181FD36C2131716008546F0
:100BB0003387E640139405013AC02A83B2872AC4DA
:100BC0008146014741801316170032C663D6E700FD
:100BD000130181026FF06FCDB304F3403306F300CD
:100BE000635C960293940701B302E340C1802246FE
:100BF00063585606324682450507B296139616008C
:100C00002E966357C00013862500FD17AE9632C09E
:100C10002246050632C445BF9312070193D2020152
:100C2000B305540093930401124693D30301C20504
:100C30001E85C1811AD236D03ECE3ACC16CA1EC805
:100C40002D3ED242C2431246B3055440C205C18173
:100C50001E852536850412538256F2476247BDBF72
:100C6000939302011246B385840093D30301C20516
:100C70001E85C1811AD23AD036CE3ECC16CA1EC8C5
:100C8000EFF0BFAFC243B30594401246C205C18125
:100C90001E85EFF09FAED242125302578502F246F4
:100CA000E247B1B7EFF2CFBF1301C1FB2AC4AE8454
:100CB0001145854532C202CC02CE02D002DA02DCF6
:100CC00002DE82C002C602C8231A010002D202D488
:100CD00002D623180102EF10005F85454145EF1051
:100CE000805E854513050002EF10E05D05658545D2
:100CF00013050580EF10205D09470D44F8842C088A
:100D00004147371501403AD022CEEF10E03E8945E9
:100D100037150140EF10A0461147930680022C08BA
:100D200037150140F8843AC036D022CEEF10C03CCF
:100D30009546F484B716014061432C08138506409C
:100D40001AD022CEEF10403BB716014099456143BF
:100D500013850680EC842C081AD022CE373401404B
:100D6000EF108039130504C0EF104063A2476C00F8
:100D7000130504C0FD17FD14FC80648623190100CF
:100D800023170100230A0100EF108065C1679387D4
:100D90000707024712463EDAB707080089073EDE1A
:100DA0004C1893070010130504C0231CE102231DF7
:100DB000C102BEC0EF10A0674C18130504C0EF10AD
:100DC000A06DB707C8003ED4B71700203ED64C1020
:100DD0009167130504C02318F10202D2EF102075A9
:100DE000130504C08545EF100078130504C0814544
:100DF000EF10407C130504C08145EF10807C130583
:100E000004C08545EF1060798545130504C0EF10D7
:100E10000074130141046FF04FA9EFF26FA81301A2
:100E200041FC2A842EC2B28481451306C002080800
:100E300036C0EFF08FB18545054502C402C6EF10FC
:100E4000A0462285EF10E018924782460C083EC863
:100E5000C1473ECC930700083ED2930700103ED412
:100E6000930700403ED622858D6736CE3EDA26CAED
:100E700002D002D802DCEF10E01E85452285EF107B
:100E8000E0219307A0117C8489475C852800854771
:100E90003EC6EF10A02F37050240054689451305D1
:100EA0008505EF10E0201301C1036FF00FA0711151
:100EB0003705020022C0EF10A02129C1894537154E
:100EC0000140EF10202B8547370400208945631B24
:100ED000F50237150140EF10C02AB73501409306DF
:100EE000E00313060403938585C337050240130509
:100EF0008505253737050200EF10401E0244110119
:100F00007300203037150140EF106027B7350140DE
:100F10009306E00313060403938545C3F9B7EFF284
:100F20002F983111AA842E8405458545EF10803B0A
:100F300037050040EF1080462C00FD147D14370566
:100F40000040648660842315010023170100EF1020
:100F500020490546854537050040EF10206293077C
:100F6000605205447C800A8595475C8122C2EF105F
:100F7000E021854537050040EF10605DB707002090
:100F80002386870A51016FF04F92711122C03734C6
:100F900001408545130504C0EF100064130504C02B
:100FA0008545EF10E064024411017300203085454F
:100FB00037050040EF10406285476310F502814518
:100FC00037050040EF10A058B707002085453705CA
:100FD00000402386070AEF10A06173002030EFF273
:100FE0002F8C1301C1FD61468145680002C002C219
:100FF00002C4EFF08F95854513050002EF10A02C79
:10100000854513050020EF10002C31653724014081
:10101000EF10201E13050440EF001061371501404A
:10102000C1478A85130505407C8002C4EF10C00CBF
:10103000854737070E006C00130504403ECA3ACCC2
:101040002300F10202C602C802CEEF005060B705CD
:10105000000213050440EF00F075854513050440B8
:10106000EF00D064854513050440EF00306313059D
:101070000440EF00D064930404402685EF00D06460
:101080006DFD1305044037240140EF007064130424
:1010900004402285EF0070646DFD130141026FF082
:1010A000CF80EFE2FFFF1301C1FC2A842EC2B2847D
:1010B00081451306C002280036C0EFF00F89854530
:1010C0000545EF10601E2285EF00B0709247824602
:1010D0002C003EC4930700083ECE930700103ED07C
:1010E000930700403ED222858D6726C636CA3ED67B
:1010F00002C802CC02D402D8EF00D076130141031B
:101100006FE0BFFAEFE2DFF937240140B704024095
:10111000A946138681909305C444138584005137F2
:10112000138584008545EF0070778D4605461305CD
:1011300004409D45EF00705C854513050440EF00B9
:10114000505A6FE09FF6EFE2BFF5138681901307C8
:10115000460193878190014596238907369542057C
:101160004181E31BF7FEA945EFE0DFF637040240BB
:10117000B7250140A94613868190931405019385F4
:10118000C54413058400313F130584008545EF00F5
:10119000F070C180856523A09192938525CB26852B
:1011A000EFE05FF19305F03FEFE05FF213844193CE
:1011B0009305C00608C00145EFF06FC91305007E16
:1011C000EFF08FC93735000013054533EFF0EFD846
:1011D0001040B73500009385053413854192EF1018
:1011E000D0409305C00613056003EFF04FC641657C
:1011F0000115EFF06FC613854192EFF00FD69305FE
:10120000C00613054005EFF08FC41305007EEFF014
:10121000AFC43735000013054534EFF00FD46FE04D
:10122000DFE8EFE2FFE7930540070145EFF02FC24B
:101230001305007EEFF04FC237350000130545421D
:10124000EFF0AFD1B7070040D233B7350000420608
:101250004182938505341385419223ACC192EF10EE
:10126000D0389305400713056003EFF04FBE130518
:10127000F07FEFF06FBE13854192EFF00FCE930534
:10128000400713054005EFF08FBC1305007EEFF01B
:10129000AFBC3735000013050543EFF00FCC6FE00E
:1012A000DFE0EFE2FFDF01479306000F13060014B3
:1012B00081450145EFF0AFCF0145EFF08FBA13053F
:1012C000007EEFF06FB985450145EFF04FB8373537
:1012D000000013058534EFF04FC841657D15EFF030
:1012E000AFB7C1450145EFF08FB6373500001305A4
:1012F0008536EFF08FC6E1450145EFF04FB5373544
:10130000000013058537EFF04FC593050002014536
:10131000EFF0EFB33735000013058538EFF0EFC37A
:10132000930580020145EFF08FB2373500001305B9
:10133000C539EFF08FC2930500030145EFF02FB1DF
:10134000373500001305C53AEFF02FC19305800330
:101350000145EFF0CFAF373500001305053CEFF046
:10136000CFBF930500040145EFF06FAE37350000A5
:101370001305453DEFF06FBE930580040145EFF086
:101380000FAD373500001305853EEFF00FBD930517
:1013900000050145EFF0AFAB373500001305C53F41
:1013A000EFF0AFBB930580050145EFF04FAA37354D
:1013B000000013050541EFF04FBA6FE01FCFB707EC
:1013C000002003A5C702A1461387C7021356B50024
:1013D0009357F501B18FA98F13561500B18F858BE7
:1013E00006055D8D9387F6FF93960701C182F9FE8E
:1013F00008C31375F50F931715003E958280EFE231
:101400003FCA9306000F511101471306001481458E
:101410000145EFF0CFB9B165938505B81305803E5E
:10142000EFF0FFAFB706002083C7C60A81E731019E
:101430006FE0BFC7B70400209307001493844400F3
:101440003EC4B53FCD45EFE0BFCB42054181060527
:1014500026950221AD372AC29D379305000FEFE094
:101460003FCA1246131705014183930500143285C4
:101470003AC0EFE0FFC8024742052286BA854181A3
:10148000EFF0AFAF2D3F2AC21D3F9305000FEFE0F5
:101490003FC7124613170501418393050014328597
:1014A0003AC0EFE0FFC5024705054205BA8522862E
:1014B0004181EFF08FAC21372AC211379305000F1D
:1014C000EFE01FC41246050513170501418393057C
:1014D000001432853AC0EFE0BFC2024742052286BF
:1014E000BA854181EFF06FA9D93D2AC2C93D930564
:1014F000000FEFE0FFC012460505131705014183F9
:101500009305001432853AC0EFE09FBF02470505FE
:1015100042052286BA854181EFF02FA6A247B70681
:101520000020FD17C207C183E39C07F0F5BDEFE281
:101530003FB7711101479306000F13060014814550
:101540000145EFF0CFA6B165938505B81305803E40
:10155000EFF0FF9CB707002003C7C70A01E711019E
:101560006FE0BFB4B7040020014493844400931695
:101570000401C18636C0A135CD45EFE07FB84205F4
:1015800041810605269582461A2113060014B68568
:1015900001450504EFF0AFB2420441801307001487
:1015A000B7070020E315E4FC45BFEFE27FAF711100
:1015B00001479306000F1306001481450145EFF023
:1015C0000F9FB165938505B81305803EEFF03F95F9
:1015D000B707002003C7C70A01E711016FE0FFAC9E
:1015E000B70400200144938444001316040141868B
:1015F00032C0EFF0DFDCCD45EFE09FB04205418126
:101600000605269502461A219306000F814532856C
:101610000504EFF0CFAA4204418013070014B70776
:101620000020E314E4FC7DB7EFE29FA731110147EE
:101630009306000F1306001481450145EFF02F9724
:10164000B165938505B81305803EEFF05F8D3704D3
:1016500000208347C40A81E751016FE01FA5EFF026
:101660001FD6AA84EFF0BFD52AC8EFF05FD52AC2F3
:10167000EFF0FFD42AC0EFF09FD4CD45EFE05FA894
:1016800042054181931715003705002013054500D9
:101690003E9582461A219305000F36853AC6EFE043
:1016A0003FA6124693160501C186930500143285A4
:1016B00036C4EFE0FFA442431316050141861A85A4
:1016C0009305000F32C2EFE0BFA393170501C18756
:1016D0009305001426853EC0EFE09FA28247324763
:1016E000A24612464205BE854185EFF04F9D95B753
:1016F000EFE21F9B611101479306000F13060014D0
:1017000081450145EFF0AF8AB165938505B81305B2
:10171000803EEFF0DF80B702002083C7C20A81E776
:1017200021016FE09F98B704002081479384440013
:1017300013930701135303013EC2330460401AC0E0
:10174000EFF0FFC7CD45EFE0BF9B420506044181A6
:10175000420406050243418026951A219306040F90
:1017600013060414C2064206C18241829A851A8574
:10177000EFF06F8D924713078007B70200208507AF
:10178000E398E7FA59BFEFE2BF9151110147930681
:10179000000F1306001481450145EFF04F81B1653C
:1017A000938505B81305803EEFF06FF7B70700206B
:1017B00003C7C70A01E731016FE03F8FB70400207C
:1017C0001304800793844400EFF07FBF2AC4EFF036
:1017D0001FBF2AC0EFF0BFBECD45EFE07F924205AC
:1017E00041810605024626951A219305000F328590
:1017F0003AC2EFE0FF90A246131305011353030111
:101800009305001436851AC0EFE09F8F02431247FC
:101810004205D14651469A8541817D14EFF0AF8251
:101820001374F40FB707002045F059B7EFE25F8754
:10183000511101479306000F13060014814501451D
:10184000EFE0FFF6B165938505B81305803EEFF034
:101850000FEDB707002003C7C70A01E731016FE0AA
:10186000DF84B70400201304800793844400EFF062
:101870001FB52AC4EFF0BFB42AC0EFF05FB4CD4566
:10188000EFE01F88420541810605024626951A2190
:101890009305000F32853AC2EFE09F86A2461313EC
:1018A0000501135303019305001436851AC0EFE0B8
:1018B0003F85024312474205D14651469A854181F0
:1018C0007D14EFE0DFEE1374F40FB707002045F04E
:1018D00059B7EFE2EFFC511101479306000F1306D1
:1018E000001481450145EFE09FEC9307803E23A85B
:1018F000F19289438942814701441383019303276D
:1019000003009306F7FF2320D30001E731016FE0C6
:10191000CFF91EC416C23EC0EFF07FAAB707002061
:10192000CD4593844700EFE0AFFD420541810605B8
:10193000824726951A21BE85D1461306800222854C
:10194000EFE0FFE6EFF0BFA7CD45EFE06FFB42050C
:1019500041810605AA948A20EFE01FD09242130726
:1019600070111694420441808247A243138301936D
:1019700063778700B3025040C20293D202019E9760
:10198000C207C1831307B00DE37BF7F6B3037040C2
:10199000C20393D30301A5B7EFE28FF001475111C2
:1019A0009306000F1306001481450145EFE03FE068
:1019B000B165938505B81305803EEFF04FD6370724
:1019C00000208347C70A81E731016FE00FEEB704BB
:1019D00000201304000593844400EFF05F9E2AC4A6
:1019E000EFF0FF9D2AC0EFF09F9DCD45EFE04FF156
:1019F0004205418106058247269516219305000F71
:101A00003E8536C2EFE0CFEF224693170501C1872E
:101A10009305001432853EC0EFE08FEE8247924678
:101A200042052946BE8541857D14EFE09FFE137473
:101A3000F40F3707002055F069B7EFE26FE6014772
:101A400051119306000F1306001481450145EFE084
:101A50001FD6B165938505B81305803EEFF02FCCF6
:101A6000370700208347C70A81E731016FE0EFE3C2
:101A7000B70400201304000593844400EFF03F9462
:101A80002AC4EFF0DF932AC0EFF07F93CD45EFE05B
:101A90002FE74205418106058247269516219305C9
:101AA000000F3E8536C2EFE0AFE5224693170501F1
:101AB000C1879305001432853EC0EFE06FE4824792
:101AC000924642052946BE8541857D14EFF04F8D33
:101AD0001374F40F3707002055F069B7EFE24FDCBD
:101AE000EFF0FF91EFF0BFA4EFF03FACEFF0DFB30A
:101AF000EFF01FC0EFF03FC9EFF05FD3EFF07FDDF5
:101B0000EFF09FE9EFF07FF36FE02FDAEFE24FD9CC
:101B10000545952DDD2AEF00D03DE92371651305BC
:101B20000520EF00F043B707002083A5070C3735E9
:101B3000000013054543EF1000297921AA853735A8
:101B4000000013054544EF1000280146C145130568
:101B5000900CEFF02F953734014037060020370501
:101B600002409306E003930544C3130606031305DE
:101B70008505EFF08FAA0546130504C093050010F4
:101B8000EF00F020130504C08545EF00501CEFF076
:101B90000FC5EFF02FD7EFE0FF8B13054006EF00E6
:101BA000903837040020EFF0CFEFB16505659385DD
:101BB00005B813058538EFF08FB68347C40A81E76F
:101BC000EFF0DFF1CDB7EFF00FD8EFF08FE565451F
:101BD000EF007035DDB7EFE2AFCC371402401C40A8
:101BE0003707FFF8611193E717001CC05C404145BF
:101BF000F98F5CC01C403707F7FE7D17F98F1CC0BA
:101C00001C403707FCFF7D17F98F1CC05C404177F3
:101C10007D17F98F5CC0B7079F001CC4D1231C4CF3
:101C20003706020093E707021CCCB717014003A751
:101C30000740938607401377F7F023A0E74003A7F8
:101C400007401367070823A0E74089479CCA02C0E2
:101C500002C21C4C37070140A16693E717001CCC59
:101C60005C43D58F5CC31C404167B7160240D98FD7
:101C70001CC009679C42F18F3EC2824785073EC067
:101C8000924781E78247E397E7FEB71702409C43FC
:101C90001397E7006359070685473EC212478547F9
:101CA0006310F706B72702409843C176FD16719B73
:101CB00098C398431367170098C3B7170240D843D7
:101CC000D8C3D843758FD8C3D843C166558FD8C3FE
:101CD0009843B7060001558F98C398439316670041
:101CE000E3DD06FED843B7160240719BD8C3D84344
:101CF00013672700D8C32147DC42B18BE39EE7FE80
:101D000021016FE08FBA02C251BFEFE26FB93717FE
:101D100002405C43370400209146B18B1304040C4D
:101D20006385D700A1466382D704B7376E019387D6
:101D300007601CC0B7160240DC420840918313F7CD
:101D4000F700B70700209387070BBA978C23DC4274
:101D500093F5F50F93F707083357B50081E7EFE0E8
:101D60006FB72A8718C06FE04FB45C43B777DC02C7
:101D7000938707C07DBF01A097F1FF1F938101B733
:101D8000138181F11305000A97E5FF1F93858527CD
:101D900017E6FF1F1306062763FAC5008322050016
:101DA00023A0550011059105E3EAC5FE17150000B3
:101DB0001305056B97E5FF1F9385C52417E6FF1FE5
:101DC0001306C63263FAC5008322050023A055001E
:101DD00011059105E3EAC5FE17E5FF1F130505315F
:101DE000938541946377B500232005001105E36DC9
:101DF000B5FEB722000093820288739002308D42B4
:101E00007390428097E2FFFF9382C21F93E23200F9
:101E100073905230EFF03FDC97020000938242CF84
:101E20007390123473002030B72701409387074026
:101E3000631EF500EFE2CFA6854513050020D121F2
:101E400081451305002075296FE02FA682805C4133
:101E50003707F1FF1307F7EF7D8FDC419441A207AD
:101E6000D58FD98F5CC11C4537F7F1FF1307D77F9A
:101E7000D4457D8F9C49D58F94458606D58FD98FC3
:101E80001CC55C55370710FF7D177D8FDC29FD17BA
:101E900093F7F70FD207D98F5CD582801C4589C58F
:101EA00093E717001CC58280F99BEDBF1C4589C5CF
:101EB00093E707101CC5828093F7F7EFE5BF1C4539
:101EC00093E787001CC5828008450D8105898280C3
:101ED0001C4593E747001CC5828008450981058998
:101EE00082801C4591C537075000D98F1CC5828060
:101EF0003707B0FF7D17F98FD5BFA54763F8B70443
:101F0000138765FF931717008322C500BA971D43F7
:101F10003313F3001343F3FF33735300B397F60007
:101F2000B3E767005CC5994763E3C7047D16931761
:101F300026003E965859FD47B397C70093C7F7FF51
:101F4000F98FB395C500DD8D4CD98280939715002C
:101F500003230501AE971D473317F7001347F7FF1B
:101F600033776700B397F6005D8F18C96DBFB1472F
:101F700063E2C7026516931726003E961859FD477F
:101F8000B397C70093C7F7FFF98FB395C500DD8DF1
:101F90000CD982804D161317260054553A96FD47EA
:101FA000B397C70093C7F7FFF58FB395C500DD8DD5
:101FB0004CD582805C41370700FA7D17F98F5CC1F0
:101FC0005C41DD8D4CC18280B7F7FF1F03A5477CC4
:101FD00082801C4141677917F98F1CC123200500BD
:101FE0002322050023240500B7070240232605000D
:101FF000138787006317E500D8431367F700D8C33A
:1020000082801387C7016316E500D8431367070F63
:10201000FDB7138707036318E500D84385669386E9
:1020200006F0558FE9BF138747046315E500D843D1
:10203000BD66C5BF138787056316E500D843B7069D
:102040000F00C5B71387C7066316E500D843B70668
:10205000F000C1BF13870708E314E5FAD843B706B9
:10206000000FC1B71841E177BD0794517D8F9C45A2
:10207000D58F9449D58FD449D58F944DD58FD44DD4
:10208000D58FD451D58F9455D58FD98F1CC1DC45B0
:102090005CC19C411CC5DC415CC582801C4189C57A
:1020A00093E717001CC1828041677917F98FDDBF64
:1020B0001C4101C6DD8D0CC1828093C5F5FFFD8DED
:1020C000DDBFB70702409C437D8D3335A000828081
:1020D000EFD21FFDEFF0FFFE6FD03FFDB7070240CC
:1020E000C8C38280EFD2DFFB85450545192C8145A9
:1020F0000545012C6FD07FFB944593F7060193F2C1
:10210000F60081C7DC41B3E2F20083D3050093F708
:10211000F30FA5C303230500611122C226C0814726
:10212000130480029304800405473316F70033F745
:10213000C3006312E602939527003D473317B700AB
:102140001347F7FF33736700B395B20033E36500BD
:10215000639D860050C985072147E397E7FC124439
:1021600023206500824421018280E39696FE10C9F7
:10217000DDB7828048456D8D3335A00082800CC963
:1021800082804CC9828023AEA192828083A6C193B3
:10219000854718216390F6021C31639CD7023C21CD
:1021A0009A0793E707F8B7E600E093F7F70FBA96B8
:1021B0002380F6408546935757003397E6005441F5
:1021C00089CE938707048A07B7E600E0B69798C3DD
:1021D0008280EDF33C219A07F9B793870706E5B7AC
:1021E000371702401C430E0593F777F05D8D08C347
:1021F0008280B7160240DC4241771307F77FF98FE0
:102200005D8DC8C28280EFD2BFE9371702405C43C0
:1022100091462A84B18B6385D700A1466380D70895
:10222000B7376E01938707601CC0B7160240DC42C7
:10223000918313F7F700B70700209387870DBA97AC
:102240008C23DC42184093F5F50F93F707083355BC
:10225000B70081E73A85EFD0FFE748C008C448C41B
:10226000B7170240DC438D46AD83FD8B13D7370093
:102270008A07F18BD98F13F6370113F7370063F410
:10228000C600138747FFB70700209387470CBA970C
:102290008C23EFD03FE408C86FD03FE15C43B777B1
:1022A000DC02938707C049B799C5371702405C4BDA
:1022B0005D8D48CB8280B7170240D84B1345F5FFA0
:1022C000798DC8CB828099C5371702401C4F5D8D30
:1022D00008CF8280B7170240984F1345F5FF798DDC
:1022E00088CF828099C5371702405C4F5D8D48CFFB
:1022F0008280B7170240D84F1345F5FF798DC8CFBC
:10230000828099C5371702405C475D8D48C782803F
:10231000B7170240D8471345F5FF798DC8C78280AB
:1023200099C5371702401C4B5D8D08CB8280B717CB
:102330000240984B1345F5FF798D88CB82801A2196
:102340008D6793870704B6217D8F9E21D58FD62177
:10235000D58FF621D58F9625D58FB625D58FD62545
:10236000D58FF625D58FD98F1EA19E291EA98280D3
:102370001E2189C593E707041EA18280C207C1837D
:1023800093F7F7FBC207C183C5BF5E2101C6DD8D90
:102390004EA1828093C5F5FFFD8DDDBFEFD25FD0EA
:1023A000B7370140938707C0631FF5000564854573
:1023B00013050480EFF0FFF4814513050480EFF06E
:1023C0005FF46FD09FCEB7070040E31CF5FE854554
:1023D0000545EFF0FFF481450545EFF07FF4D5B7F3
:1023E0001E2137370140130707C0C207C1836306A8
:1023F000E500370700406316E500BA2193F7F7F8C8
:10240000D98FFA2193F7F7CFC207C183D98F1EA1C5
:10241000DE215EB59E211EB5B7370140938707C008
:102420006314F5009C251EB985475EA982801E3184
:10243000922103D32500C207C183F99BC207C18340
:102440001EB11E3156211A2DC207C1834207418396
:102450001377C7F8518F9225F59BC2063366660045
:10246000D18F37360140130606C0C1826310C50202
:10247000B225DD9B03D3E500D18FD221ED9B93F6EE
:10248000F6CFD18FD22533666600D18E56A11AAD14
:10249000FA2158D91EB182801E3165771307F7CF14
:1024A000C207C183BD9BC207C1831EB11E31562125
:1024B00003D38500C20713960601162DC18393F737
:1024C000F7FD758F96214182A206558FB6214207EE
:1024D0004183B3E666009206D58FB7360140C20746
:1024E000938606C0C183631ED502B62593F7F7F71E
:1024F00003D3C5009206D58FD621C207C1839206A9
:1025000093F7F7FBD58FFD769386F63FF18EF22594
:10251000C207C183336666000A06D18E1396060190
:10252000418252A11AADFA2118DD1EB18280BA2172
:102530009E21D98FDA21D98FFA21D98F9A25D98F67
:10254000BA25D98FDA25D98F2312F50482801E216E
:1025500089C593E717001EA18280C207C183F99B3A
:10256000C207C183CDBF8357450491C52167D98F69
:102570002312F5048280C607C583DDBF5E2501C630
:10258000DD8D4EA5828093C5F5FFFD8DDDBFEFD2B9
:102590003FB1EFF0BFFE6FD05FB11E2189C593E759
:1025A00007081EA18280C207C18393F7F7F7C2070D
:1025B000C183C5BF1E2DC207C183DD9BDD8D0EAD5E
:1025C00082801A2DFD779387F77FF98FA205CD8F33
:1025D000C207C1831EAD82801E294A25ED8F4205A8
:1025E000418189C76D8D3335A0008280014582808D
:1025F00093C5F5FFC205C1810EA98280EFD25FAA03
:102600001629F577FD17F58FF621DA252111D58FDB
:102610001EA95625FD779387379FF58FD6212A84EB
:102620002EC0D58F9625D58FB625D58F5EA55E2970
:10263000C207C18393F7F7CF5D8F5AA94800EFF027
:102640009FBCB74701409387078082456312F40619
:10265000C2475A24139517003E9542070E0541873D
:102660003E958C41635807048605EFD0BFA69305BD
:1026700040062AC0EFD01FA6824793144500930559
:1026800040063E85EFD0DFA75E24C207C18763D531
:1026900007020E059305400613052503EFD09FA3FF
:1026A0001D89C98CC204C18006A461016FD0FF9F3F
:1026B000B24745B78A0555BF120593054006130575
:1026C0002503EFD03FA13D89E9BF91C55E2509678C
:1026D000D98F5EA582805A25F977FD17F98FD5BF6E
:1026E00093F5F51F4EA182800A216D8D3335A00030
:1026F0008280EFD2FF9AB707002003A5070CB71519
:102700007A0093850520EFD0FF9C1375F50F238188
:10271000A19493175500898F8A073E950E05239043
:10272000A1946FD09F98EFD2BF9737F400E05C4040
:10273000AA85F99B5CC003D50194EFD0BF9708C868
:10274000232404001C4093E717001CC0B7F700E0E7
:10275000D843058B75DF9843799B98C36FD0FF945E
:10276000EFD21F942A8411651111854513050502C6
:10277000EFF07FB5930700027C80371501408D474D
:102780003EC28A85E147130505403EC4EFF0DF965F
:1027900022C637440140B70708006C0013050480C7
:1027A0003ECA02C8231C0100EFF05FE58545130512
:1027B0000480EFF09FF171016FD03F8FEFD25F8EF9
:1027C0007111AE840144635FC402B74701401387AF
:1027D00007803A859305000432C0EFF0FFF0B74759
:1027E00001401387078002466DD533878400830537
:1027F0000700138507800504C205C181EFF05FEE75
:102800000246D1B7328511016FD03F8A411106C609
:102810002EC00DCD1841AA8705C358417D5511CB57
:102820008546631BD70098472300070023A20700B3
:102830000545B240410182809847824614A39847DB
:10284000050798C7D8437D17D8C3DDB705468A85E5
:10285000EFF0DFF6F1BF011122CC2EC206CE26CA60
:102860002A84814793050002634506029245BE957E
:10287000838505008DE563D8C70263D4E702198E0E
:102880001305000293F526002AC089C501E79305C8
:1028900000032EC0858A81449DEAB28415A0850775
:1028A000F1B71D8EF1BF0146E1BF824522853AC8CE
:1028B00032C63EC4EFF09FF5A24732464247FD14B0
:1028C000E34590FEB284635306008144058E63C7DE
:1028D000E702A6879246338797403697830507001D
:1028E0009DEDB28463469004635306000146F240B6
:1028F0006244D2443305F600056182801D8FBA8799
:1029000093050003228532C83EC63AC4EFF01FF09B
:10291000B24722474246FD17E5F7BA945DBF2285CC
:1029200032C63EC4EFF09FEEA247324685075DB740
:102930008245228532C43EC2EFF05FEDFD1422468F
:1029400092474DB7397106DE22DC26DA3EC2328369
:102950003A8691ED92469307000301476C08FC8686
:10296000EFF07FEFF2506254D25421618280AA844A
:102970003684AE8791CA294701446317E30063D5C3
:102980000500B307B04005448646A30901021307BA
:102990003103938666FC36C49A853E8532CA3AC8AE
:1029A0001AC63EC0EFD0CFF5A54682473243424714
:1029B000524663D4A600A246369513050503930636
:1029C000F7FFA30FA7FE9A853E8532CC3ACA1AC8F4
:1029D0003EC636C0EFD00FF0B24742435247624680
:1029E00063FD670409CC29CE9247898BB1CB93054F
:1029F000D002268532C4EFF07FE122467D16924751
:102A0000918B85C706479307100632C493050003D0
:102A100026856311F704EFF07FDF93058007268595
:102A2000EFF0DFDE2246090479161647924682450A
:102A30002685EFF05FE2229535B7AA870247A9BF46
:102A400082469307D0020144A38FF6FE9307E7FF67
:102A50003EC075B7EFF09FDB93058005C9B7014510
:102A6000828001458280130181FD22D026CE06D2CC
:102A70002AC4AE82328402C681448385020091ED6D
:102A8000A24789C781453E85EFF05FD89250025436
:102A90002685F244130181028280930750026389E4
:102AA000F500224516C88504EFF05FD6C24205A0A6
:102AB0008387120013871200639DB7002245930598
:102AC00050023AC8EFF09FD442478504BA8285028B
:102AD0006DB7DDD79306B0026389D70463C8F600EB
:102AE000930630026386D704814705A09306D0027F
:102AF000638AD70093060003E398D7FE138722006A
:102B0000894721A013872200854783060700130603
:102B1000B0026383C6046341D60213063002638B9E
:102B2000C602BA820145A54681A0138722006DBF67
:102B3000138722009147D1BF1306D0026389C600D4
:102B400013060003E39FC6FC93E7270031A00507A7
:102B50008547C1BF93E747000507E1B71316250076
:102B6000329506053A95850203860200130706FD95
:102B70009375F70FE3F4B6FE1307E0029946631E60
:102B8000E60085028146A54503860200130606FD80
:102B90001377F60F63F5E50236C6038702001306C6
:102BA000A006630DC70A6343E6021306C004630769
:102BB000C70A13068006630CC70881452DA8139722
:102BC0002600BA968606B29685027DBF1306400798
:102BD0006306C7081306A0076302C7081306C006EA
:102BE0008145631AC700038612008D456314E60011
:102BF00085029145850203860200930300061307B0
:102C0000100663C4C300130710049303700663C463
:102C1000C30693035006635676189303700463C18A
:102C2000C30493055004635EB61613073004E31023
:102C3000E6EA18409303440016CA230CE1001EC8BC
:102C4000A30C01000147BE862A862C0849A80386EA
:102C500012008145E311E6FA890271BF8502B1BF16
:102C600093063006E307D6FC63CFC60693068005BD
:102C70006303D602A9BD930630076304D60463CB71
:102C8000C6029306F0066305D60E9306000793E787
:102C90004700E31ED6E291466392D50C930384006D
:102CA0000C40504016CA3AC23EC01EC8AA8701470F
:102CB000C14681A893065007630BD606930680078A
:102CC00045BF1840B736000093034400938546453E
:102CD00011C3BA85324716CA1EC8BE862A86224547
:102CE000EFF07FB715A091466395D502930384005A
:102CF0000C40504016CA3AC23EC01EC8AA870547BB
:102D0000A9462245EFF0BFD5C243AA941E84D24201
:102D10007DBBB2460C4016C836C23AC011042A87A1
:102D2000854629462245EFF0FFC1AA9441B391465A
:102D3000639DD500930384000C40504016CA3AC2EC
:102D40003EC01EC8AA87014765BFB2460C4016C8E0
:102D500036C23AC011042A878146E1B7B24616C886
:102D60000C40414636C23AC011042A8781465DBFF5
:102D70009146639ED500930384000C40504016CAD0
:102D80003AC23EC01EC8AA870147A1469DBFB246AF
:102D90000C4016C836C23AC011042A878146214623
:102DA00051B70C401306840040403AC22A8722459E
:102DB00032C83EC02286B687A94616CAEFF07FCA3F
:102DC000AA944244A9B71301C1FD2EC832CAAA85EC
:102DD0001008014506C636CC3ACE3ED032C0EFF0E0
:102DE0009FC8B240130141028280130141FD32CEDF
:102DF0003ED42AC67008FD57480006CC36D03AD2D9
:102E000002C23EC432C0EFF01FC6E2401301C1024D
:102E10008280000000000000003E5B4F5B3E3E6B86
:102E20004F6B3E1C3E7C3E1C183C7E3C181C577D64
:102E3000571C1C5E7F5E1C00183C1800FFE7C3E7B0
:102E4000FF0018241800FFE7DBE7FF30483A060EC2
:102E50002629792926407F050507407F05253F5A09
:102E60003CE73C5A7F3E1C1C08081C1C3E7F142279
:102E70007F22145F5F005F5F06097F017F00668924
:102E8000956A606060606094A2FFA29408047E046A
:102E90000810207E201008082A1C08081C2A080890
:102EA0001E101010100C1E0C1E0C30383E38300650
:102EB0000E3E0E06000000000000005F000000074C
:102EC000000700147F147F14242A7F2A122313087A
:102ED000646236495620500008070300001C224156
:102EE000000041221C002A1C7F1C2A08083E0808FA
:102EF00000807030000808080808000060600020AA
:102F0000100804023E5149453E00427F400072498C
:102F10004949462141494D331814127F1027454530
:102F200045393C4A49493141211109073649494946
:102F300036464949291E00001400000040340000B4
:102F4000000814224114141414140041221408021D
:102F5000015909063E415D594E7C1211127C7F4990
:102F60004949363E414141227F4141413E7F4949E5
:102F700049417F090909013E414151737F08080811
:102F80007F00417F41002040413F017F08142241E2
:102F90007F404040407F021C027F7F0408107F3E3C
:102FA0004141413E7F090909063E4151215E7F09A9
:102FB000192946264949493203017F01033F404010
:102FC000403F1F2040201F3F4038403F63140814FB
:102FD0006303047804036159494D43007F41414133
:102FE0000204081020004141417F04020102044014
:102FF00040404040000307080020545478407F2898
:103000004444383844444428384444287F3854548D
:10301000541800087E090218A4A49C787F080404B0
:103020007800447D40002040403D007F102844004F
:1030300000417F40007C047804787C0804047838E0
:1030400044444438FC1824241818242418FC7C0810
:10305000040408485454542404043F44243C40408D
:10306000207C1C2040201C3C4030403C4428102840
:10307000444C9090907C4464544C44000836410089
:103080000000770000004136080002010204023C03
:103090002623263C1EA1A161123A4040207A3854D2
:1030A000545559215555794122545478422155544B
:1030B000784020545579400C1E527212395555559E
:1030C00059395454545939555454580000457C4189
:1030D0000002457D420001457C407D1211127DF0C9
:1030E000282528F07C545545002054547C547C0AF3
:1030F000097F4932494949323A4444443A324A48BC
:1031000048303A4141217A3A42402078009DA0A0BF
:103110007D3D4242423D3D4040403D3C24FF242411
:10312000487E4943662B2FFC2F2BFF0929F620C030
:10313000887E090320545479410000447D41304881
:10314000484A32384040227A007A0A0A727D0D19C4
:10315000317D2629292F28262929292630484D4026
:1031600020380808080808080808382F10C8ACBA22
:103170002F102834FA00007B000008142A142222A1
:10318000142A14085500550055AA55AA55AAFF55EA
:10319000FF55FF000000FF00101010FF0014141472
:1031A000FF001010FF00FF1010F010F0141414FCBA
:1031B000001414F700FF0000FF00FF1414F404FCD7
:1031C000141417101F10101F101F1414141F0010B8
:1031D0001010F0000000001F101010101F10101031
:1031E00010F010000000FF10101010101010101040
:1031F000FF10000000FF140000FF00FF00001F1080
:10320000170000FC04F414141710171414F404F439
:103210000000FF00F714141414141414F700F7142A
:103220001414171410101F101F141414F414101079
:10323000F010F000001F101F0000001F140000001D
:10324000FC140000F010F01010FF10FF141414FF15
:10325000141010101F00000000F010FFFFFFFFFF10
:10326000F0F0F0F0F0FFFFFF0000000000FFFF0FA4
:103270000F0F0F0F3844443844FC4A4A4A347E0248
:10328000020606027E027E026355494163384444C9
:103290003C04407E201E2006027E020299A5E7A57E
:1032A000991C2A492A1C4C7201724C304A4D4D30EF
:1032B0003048784830BC625A463D3E494949007E14
:1032C0000101017E2A2A2A2A2A44445F44444051AB
:1032D0004A444040444A51400000FF0103E080FF5F
:1032E000000008086B6B0836123624360006090900
:1032F00006000018180000001010003040FF010107
:10330000001F01011E00191D1712003C3C3C3C002F
:10331000000000000B14081E221D181E1B1A242B6F
:103320000606020F09160920211B131917151E2B5B
:103330000405020E414443312D4348373A20000032
:10334000253464006D560000434833325630303324
:10335000205350574D202620494C493933343120D1
:1033600044656D6F00000000312E2052616E646F65
:103370006D20646F74000000322E20486F72697AED
:103380006F6E206C696E6500332E2056657274690D
:1033900063616C206C696E6500000000342E205261
:1033A000616E646F6D206C696E650000352E204380
:1033B000656E7465722052656374616E676C65003A
:1033C000362E2052616E646F6D2052656374616E9B
:1033D000676C6500372E2046696C6C6564207265E9
:1033E0006374616E676C6500382E204D6F766520C2
:1033F00052656374616E676C65000000392E20525F
:10340000616E646F6D20436972636C65000000003B
:1034100031302E2046696C6C656420436972636CA0
:103420006500000054494D322D434E543A200000AF
:103430006D73000053797374656D436C6B3A25644A
:103440000D0A00004368697049443A253038780D08
:0C3450000A000000286E756C6C2900005A
:10345C00FFFF000000000F00E003EF0300780F787F
:10346C00E07B18C6EF7B1F00E007FF0700F81FF892
:10347C00E0FFFFFF20FDE5AF18FC0000010000009D
:10348C0005000A000F00140019001E00220027007E
:10349C002C003000340039003D004100440048004D
:1034AC004B004F0053005500570059005B005D0066
:1034BC005F006000610063006300640064006400EE
:1034CC0063006300610060005F005D005B005900F9
:1034DC005700550053004F004B004800440041007A
:1034EC003D003900340030002C00270022001E0063
:1034FC00190014000F000A00050000000100000074
:10350C000102030405060708010203040506070867
:10351C00006CDC020204060804080C1008101820C9
:10352C00102030402040608001020304050607088B
:08353C00010203040506070863
:00000001FF
