:100000006F10305900000000F2010000F401000000
:1000100000000000000000000000000000000000E0
:1000200000000000000000000000000000000000D0
:10003000901D000000000000901D00000000000066
:10004000901D0000901D0000901D0000901D0000FC
:10005000901D0000901D0000901D0000901D0000EC
:10006000901D0000901D0000BC0E0000901D0000BF
:10007000901D0000901D0000901D0000901D0000CC
:10008000901D0000901D0000901D0000980F0000C2
:10009000901D0000901D0000BC0F0000000000003B
:1000A000511126C022C206C4828282441244A24058
:1000B000310182802A86014593F6150091C232955E
:1000C00085810606F5F9828000000000634E050276
:1000D00063C305042E86AA857D5515C285466378BF
:1000E000B6006356C00006068606E36CB6FE014500
:1000F00063E4C500918D558D85820582F5FA828075
:100100008682C93F2E8582823305A04063D70500D1
:10011000B305B040C1B7B305B0408682653F330533
:10012000A0408282868263C70500634905005D376F
:100130002E858282B305B040E35B05FE3305A04007
:10014000513F3305B040828200003D432A876373EC
:10015000C3029377F700BDEFADE5937606FF3D8AC6
:10016000BA960CC34CC30CC74CC74107E36BD7FE10
:1001700011E28280B306C3408A0697020000969679
:100180006780A6002307B700A306B7002306B700C1
:10019000A305B7002305B700A304B7002304B700E5
:1001A000A303B7002303B700A302B7002302B700DD
:1001B000A301B7002301B700A300B7002300B700D5
:1001C000828093F5F50F93968500D58D9396050162
:1001D000D58D61B793962700970200009696868288
:1001E000E78086FA9680C1171D8F3E96E374C3F8A8
:1001F000A5B701A0B707EFBE37E700E09387070870
:100200003CC701A0B7070240C8DFCCDB370702407C
:1002100081476398C700370702401C5BF99B1CDBD2
:100220008280145B93E6160014DB544393E60620A9
:1002300054C3144393F60620EDDE8507C207C1833D
:10024000C9BF373701401E27898BF5DF4205418141
:100250004AA7373701401E2793F70708EDFF828032
:10026000EFF21FE4373701401623FD779387F77FBE
:10027000F58F2A841EA3A14537150140EF10507653
:10028000C14537150140EF10F07522855D3F31BD46
:10029000EFF21FE1373701401623FD779387F77F91
:1002A000F58F2A841EA3A14537150140EF109073E6
:1002B000C14537150140EF10F07222855937F5B36B
:1002C000373701401E27898BF5DF4AA737370140B2
:1002D0001E2793F70708EDFF8280EFF27FDC3737A8
:1002E00001401623856793870780D58FC207C18396
:1002F0002A841EA3A14537150140EF10706EC14539
:1003000037150140EF10106E22855D3F79BBEFF28B
:100310003FD951112A841305A00236C02EC432C21F
:10032000853F22855D3F12463285453F1305B00269
:100330008537A2452E85553782463685793F130588
:10034000C002B937310195B3EFF29FD537040020D1
:100350002E83B28461112A8793D586001306C40EBA
:10036000814763CF9704C145371501401AC23AC08F
:10037000EF105067024712431386F4FF131507016D
:100380004181931603012A96C1824206B6854182B5
:10039000BD3FA14537150140EF109064A68563D39A
:1003A000040081458605C20505461305C40EC181BA
:1003B000913DC14537150140EF1090622101F5B123
:1003C0008507C2070CA214B2C187090659BFEFF214
:1003D0003FCD370400202E87B28461112A8313D6C3
:1003E00086009305C40E814763CF9704C145371536
:1003F00001403AC21AC0EF10F05E124702439386E2
:10040000F4FF93150701C18113160301AE964182D3
:10041000C2063285C182E53DA14537150140EF1086
:10042000305CA68563D3040081458605C205054678
:100430001305C40EC181F933C14537150140EF10D2
:10044000305A21019DB18507C20790A194B1C1879F
:10045000890559BFEFF2DFC401118545414502C04E
:1004600002C202C402C602C802CA02CC231E010094
:10047000EF10906B85450565EF10106B85450545C0
:10048000EF10B0680D44A147C1448A85371501407B
:100490007C8026C422C2EF10504C8A85371501405B
:1004A000648026C422C2EF10504B930700067C8064
:1004B0008A85E147371501403EC422C2EF10F0495A
:1004C000930700087C808A859147371501403EC418
:1004D00022C2EF109048B7C704013EC6B70700021A
:1004E0003ECA6C009D4737350140FC8602C802CCED
:1004F000EF10306D0546894537350140EF103071FA
:10050000854537350140EF10F06E371702405C4BE0
:10051000C1453715014093E717005CCBB707024090
:100520000D671307070B23A807029386070398DBC1
:10053000B7370140B1079CC6EF10D04A4545893B0B
:1005400013058007EF20C0281305000C9133130515
:10055000300239331305100C253B41451133130587
:10056000500C3D331305E003E53913058002CD3906
:100570001305700C313B13056008DD311305600372
:10058000013B1305800EE9391305A003113315450E
:10059000C13913057003ED390145D9311305A003A5
:1005A000C539130550056D391305100BD5310145BB
:1005B0004539614575311305600BD93921454D31F8
:1005C00013052008713913057002593913056002AB
:1005D000C131054571311305000E5D39A14537154F
:1005E0000140EF10F03F0D650546C1451305452854
:1005F00011392945EF20C01D1305100E5139A145B1
:1006000037150140EF10D03D0D650546C145130576
:100610004527CD3E2945EF20A01B1305100B8D3932
:100620001305000A3539130500029D314D458D3102
:100630002945EF20E0191305900299392945EF204B
:1006400020191305C002A931C14537150140EF102B
:100650003039056199BC2392A1902393B190828097
:10066000B70700202390A7008280B70700202394BB
:10067000A70E828001151377F50F9307E00563E459
:10068000E70EEFF2FFA1B707002003D6870E511146
:1006900037040020935786003EC4B707002083D755
:1006A00007001376F60F814613D7870093F7F70FED
:1006B0003EC293172500AA970D6586071305C5EB63
:1006C0003AC03E959305C40EFD500421B6821943ED
:1006D000B3D3644016879387120093F31300890203
:1006E00093F7F70F93F2F20F2E9763880306824376
:1006F000AE9723007700124798A37D13E31A13FCEB
:10070000B90693F6F60F9307C0080505E39FF6FABE
:1007100003D5419083D56190130665004206938608
:100720009500C206C1824182DD36C14537150140C0
:10073000EF10502BA14537150140EF10702A0546E8
:100740001305C40E9305C008753CC145371501401B
:10075000EF10102931016FF05F95A243AE9723008F
:10076000770090A359BF8280EFF29F932A840305FC
:10077000040019E16FF07F93F53D138741901E232C
:100780000504A1071EA3E5B7EFF29F917111AA849A
:100790002EC037150140C1453284EF10B024824687
:1007A00026862685B685A5362285053EC1453715A0
:1007B0000140EF10F02211016FF03F8FEFF25F8EDA
:1007C000B7030020AE82B68451112A839355870067
:1007D00081479386C30E1394170042044180639FA0
:1007E000C704C1453715014016C41AC23EC0EF10F8
:1007F000701F8247A24212431386F7FF9386F4FFCD
:1008000096961A96C206420696851A85C18241823C
:10081000FD3CA14537150140EF10901CB7030020A7
:100820001385C30E2686A285EFF0DF9DC1453715DF
:100830000140EF10F01A31016FF03F8733858600D9
:1008400005044204418085070CA13694C20718A014
:10085000C18351B7EFF2DF84BA8413170501211168
:1008600041873AC02ACA139705010245931306012E
:10087000418793D3034136842EC832C6BA85A686F3
:100880001E863AC21EC4C9344243A2439305F4FFF4
:100890009A950245C2051E86A686C1857534124703
:1008A000024542044184A6862286BA850D36B247A7
:1008B000D24212471385F7FF16954205A686228677
:1008C000BA854185293661016FF02FFEEFF24FFDA9
:1008D0001301C1FD2A846313C50263D5B600AE8738
:1008E000B685BE8685063386B6404206BA86418600
:1008F0002285F13C130141026FF02FFBB28463901B
:10090000D5026354A6003284AA8413861400018E93
:100910004206BA8641862285EFF01FA3E1BFB3836A
:10092000D54063D4D500B383B6406357940AB382ED
:10093000844063CD720AAE87A2853E84B387B440FB
:10094000C207C1833EC01316040113950601831725
:100950000100418241816357D40A3306C5404206F3
:10096000418632C2054632C485876344D400FD56B1
:1009700036C4E3C1B4F813130401939605013ED0C5
:100980001ECE16CC3ACA13530301C1823A8663DDE8
:100990007206B6851A8536C81AC6FD333243C2467A
:1009A0005247E242F24382571246918F1396070153
:1009B000418293170601C18763DB07008247B29724
:1009C0002246C207C1873304C30042044184938591
:1009D0001600C205C18571BFB302944063C872009E
:1009E000B687A686BE84AE87A2853E8463D8B6004D
:1009F000AE87B685A2862684BE8489B7A687B684CC
:100A0000BE862DBF098EA1BF9A8536851AC836C607
:100A1000A53B8257F243E24252474243B24669B78E
:100A2000EFF20FE893170601C18305471D8F368447
:100A30004207B306F0401301C1FD860641873AC460
:100A40009394050113970601C1804187B3859700F0
:100A50003AC6131705014183C2053A8532C8C181E0
:100A600022863AC03EC20D33924702452286B385A4
:100A7000F440C205C181093B024792472286A68500
:100A80003385E700420541810133024792472286C0
:100A9000A6853305F74042054181FD312247424397
:100AA000814763C66700130141026FF00FE06341A5
:100AB0000702B2467D1342038906C206C18213961D
:100AC00006013697418642071353034132C64187D8
:100AD0008507C207C1833EC2860785073E97420746
:100AE000418782473AD0124722861ACEB382E70066
:100AF00093170301C183B386F400C202C20693D2E6
:100B00000201C1821685B68516CC3EC436C8AD3901
:100B100012478247C2462286998FC207C183B68593
:100B20003E853ECA9531A247E2422286B386F44012
:100B3000C206C1821685B68536C8B931C246D247CB
:100B40002286B6853E858931824722472286B38236
:100B5000E7009247C20293D20201B386F400C206B4
:100B6000C1821685B68516CA36C8393922478247EA
:100B7000C2462286998FC207C183B6853E853EC88C
:100B800021319247D2422286B386F440C206C18206
:100B9000B685168536C4CD3EC247A24622863E851E
:100BA000B685DD368317410002577243DDBDEFF293
:100BB0002FCF130181FD36C21317160085463387E8
:100BC000E640139405013AC02A83B2872AC48146BD
:100BD000014741801316170032C663D6E7001301A0
:100BE00081026FF08FCCB304F3403306F300635CF3
:100BF000960293940701B302E340C18022466358F2
:100C00005606324682450507B296139616002E9672
:100C10006357C00013862500FD17AE9632C02246EA
:100C2000050632C445BF9312070193D20201B305F2
:100C3000540093930401124693D30301C2051E8509
:100C4000C1811AD236D03ECE3ACC16CA1EC82D3E2D
:100C5000D242C2431246B3055440C205C1811E852B
:100C60002536850412538256F2476247BDBF9393DF
:100C700002011246B385840093D30301C2051E8589
:100C8000C1811AD23AD036CE3ECC16CA1EC8EFF079
:100C9000BFAFC243B30594401246C205C1811E8551
:100CA000EFF09FAED242125302578502F246E2475E
:100CB000B1B7EFF2EFBE1301C1FB2AC4AE841145F8
:100CC000854532C202CC02CE02D002DA02DC02DE5C
:100CD00082C002C602C8231A010002D202D402D680
:100CE00023180102EF10406485454145EF10C063B1
:100CF000854513050002EF10206305658545130542
:100D00000580EF10606209470D44F8842C084147C4
:100D1000371501403AD022CEEF10204489453715CF
:100D20000140EF10E04B1147930680022C08371565
:100D30000140F8843AC036D022CEEF1000429546EA
:100D4000F484B716014061432C08138506401AD07D
:100D500022CEEF108040B7160140994561431385BC
:100D60000680EC842C081AD022CE37340140EF10D4
:100D7000C03E130504C0EF10A06AA2476C00130523
:100D800004C0FD17FD14FC8064862319010023179D
:100D90000100230A0100EF10E06CC1679387070789
:100DA000024712463EDAB707080089073EDE4C18B4
:100DB00093070010130504C0231CE102231DC10288
:100DC000BEC0EF10006F4C18130504C0EF10007583
:100DD000B707C8003ED4B71700203ED64C10916725
:100DE000130504C02318F10202D2EF10807C130512
:100DF00004C08545EF10607F130504C08145EF10E6
:100E0000B003130504C08145EF10F003130504C0BF
:100E10008545EF10D0008545130504C0EF10607BB9
:100E2000130141046FF06FA8EFF28FA7130141FC8B
:100E30002A842EC2B28481451306C002080836C037
:100E4000EFF0AFB08545054502C402C6EF10E04B98
:100E50002285EF10A019924782460C083EC8C14770
:100E60003ECC930700083ED2930700103ED4930770
:100E700000403ED622858D6736CE3EDA26CA02D0A5
:100E800002D802DCEF10A01F85452285EF10A022BA
:100E90009307A0117C8489475C85280085473EC65E
:100EA000EF10E034370502400546894513058505F6
:100EB000EF10A0211301C1036FF02F9F71113705AF
:100EC000020022C0EF10602229C189453715014078
:100ED000EF1060308547370400208945631BF50219
:100EE00037150140EF100030B73501409306E0039D
:100EF00013060403938585C3370502401305850552
:100F0000253737050200EF10001F0244110173005E
:100F1000203037150140EF10A02CB7350140930663
:100F2000E00313060403938545C3F9B7EFF24F9727
:100F30003111AA842E8405458545EF10C040370540
:100F40000040EF10E04D2C00FD147D1437050040EB
:100F5000648660842315010023170100EF10805080
:100F60000546854537050040EF10806993076052BC
:100F700005447C800A8595475C8122C2EF102027BA
:100F8000854537050040EF10C064B7070020238671
:100F9000870A51016FF06F91711122C037340140FF
:100FA0008545130504C0EF10606B130504C085452B
:100FB000EF10406C02441101730020308545370565
:100FC0000040EF10A06985476310F50281453705A1
:100FD0000040EF100060B70700208545370500404E
:100FE0002386070AEF10006973002030EFF24F8B61
:100FF0001301C1FD61468145680002C002C202C4FE
:10100000EFF0AF94854513050002EF10E031854500
:1010100013050020EF104031316537240140EF10F7
:10102000602313050440EF00D06137150140C1472C
:101030008A85130505407C8002C4EF1000128547A5
:1010400037070E006C00130504403ECA3ACC23005B
:10105000F10202C602C802CEEF001061B70500021D
:1010600013050440EF00B076854513050440EF00FA
:101070009065854513050440EF00F06313050440B7
:10108000EF009065930404402685EF0090656DFDA8
:101090001305044037240140EF0030651304044079
:1010A0002285EF0030656DFD130141026FE0FFFF07
:1010B000EFE21FFF1301C1FC2A842EC2B2848145D6
:1010C0001306C002280036C0EFF02F88854505457D
:1010D000EF10A0232285EF007071924782462C000A
:1010E0003EC4930700083ECE930700103ED09307FE
:1010F00000403ED222858D6726C636CA3ED602C83B
:1011000002CC02D402D8EF009077130141036FE0C4
:10111000DFF9EFE2FFF837240140B7040240A946A7
:10112000138681909305C444138584005137138539
:1011300084008545EF0030788D4605461305044050
:101140009D45EF00305D854513050440EF00105BC1
:101150006FE0BFF5B707002003A5C702A1461387BC
:10116000C7021356B5009357F501B18FA98F1356D7
:101170001500B18F858B06055D8D9387F6FF9396DD
:101180000701C182F9FE08C31375F50F9317150007
:101190003E958280EFE2DFF09306000F5111014788
:1011A0001306001481450145EFF04FE1B1659385C9
:1011B00005B81305803E9D3BB706002083C7C60ACD
:1011C00081E731016FE07FEEB70400209307001440
:1011D000938444003EC4BD3FCD45EFE07FF242051D
:1011E0004181060526950221B5372AC2A537930508
:1011F000000FEFE0FFF0124613170501418393053E
:10120000001432853AC0EFE0BFEF02474205228664
:10121000BA854181EFF04FD7353F2AC2253F93056C
:10122000000FEFE0FFED1246131705014183930510
:10123000001432853AC0EFE0BFEC024705054205D5
:10124000BA8522864181EFF02FD429372AC2193777
:101250009305000FEFE0DFEA1246050513170501BD
:1012600041839305001432853AC0EFE07FE90247DD
:1012700042052286BA854181EFF00FD1E13D2AC2B5
:10128000D13D9305000FEFE0BFE7124605051317A8
:10129000050141839305001432853AC0EFE05FE613
:1012A0000247050542052286BA854181EFF0CFCD80
:1012B000A247B7060020FD17C207C183E39C07F0D1
:1012C000F5BDEFE2FFDD711101479306000F130634
:1012D000001481450145EFF06FCEB165938505B8E7
:1012E0001305803EEFF09FC4B707002003C7C70A6D
:1012F00001E711016FE07FDBB70400200144938414
:10130000440093160401C18636C0A935CD45EFE0EF
:101310003FDF420541810605269582461A211306C4
:101320000014B68501450504EFF04FDA4204418010
:1013300013070014B7070020E315E4FC45BFEFE2F4
:101340003FD6711101479306000F13060014814523
:101350000145EFF0AFC6B165938505B81305803E32
:10136000EFF0DFBCB707002003C7C70A01E7110190
:101370006FE0BFD3B70400200144938444001316E8
:101380000401418632C0F933CD45EFE07FD74205F5
:1013900041810605269502461A219306000F8145D4
:1013A00032850504EFF08FD2420441801307001408
:1013B000B7070020E315E4FC45BFEFE27FCE311113
:1013C00001479306000F1306001481450145EFF015
:1013D000EFBEB165938505B81305803EEFF01FB5EC
:1013E000370400208347C40A81E751016FE0FFCB37
:1013F0009533AA8485332AC8B13B2AC2A13B2AC0AF
:10140000913BCD45EFE0DFCF4205418193171500B9
:1014100037050020130545003E9582461A219305A5
:10142000000F36853AC6EFE0BFCD12469316050190
:10143000C18693050014328536C4EFE07FCC424369
:101440001316050141861A859305000F32C2EFE09D
:101450003FCB93170501C1879305001426853EC035
:10146000EFE01FCA82473247A24612464205BE85B8
:101470004185EFF0AFC5BDB7EFE29FC261110147F3
:101480009306000F1306001481450145EFF00FB3DA
:10149000B165938505B81305803EEFF03FA9B7020B
:1014A000002083C7C20A81E721016FE01FC0B70493
:1014B00000208147938444001393070113530301D1
:1014C0003EC2330460401AC0EFF0DFC8CD45EFE004
:1014D0003FC34205060441814204060502434180A0
:1014E00026951A219306040F13060414C206420619
:1014F000C18241829A851A85EFF0CFB592471307D2
:101500008007B70200208507E398E7FA59BFEFE2AA
:101510003FB9511101479306000F1306001481458E
:101520000145EFF0AFA9B165938505B81305803E7D
:10153000EFF0DF9FB707002003C7C70A01E73101BB
:101540006FE0BFB6B7040020130480079384440003
:10155000EFF05FC02AC4EFF0FFBF2AC0EFF09FBFDB
:10156000CD45EFE0FFB942054181060502462695CB
:101570001A219305000F32853AC2EFE07FB8A246E8
:1015800013130501135303019305001436851AC084
:10159000EFE01FB7024312474205D14651469A85F4
:1015A00041817D14EFF00FAB1374F40FB7070020E7
:1015B00045F059B7EFE2DFAE511101479306000F36
:1015C0001306001481450145EFF04F9FB1659385E7
:1015D00005B81305803EEFF07F95B707002003C7DD
:1015E000C70A01E731016FE05FACB70400201304C4
:1015F000800793844400EFF0FFB52AC4EFF09FB555
:101600002AC0EFF03FB5CD45EFE09FAF42054181E5
:101610000605024626951A219305000F32853AC227
:10162000EFE01FAEA2461313050113530301930508
:10163000001436851AC0EFE0BFAC024312474205E2
:10164000D14651469A8541817D14EFF02F9713744E
:10165000F40FB707002045F059B7EFE27FA451110E
:1016600001479306000F1306001481450145EFF072
:10167000EF949307803E23A8F192894389428147E2
:10168000014413830193032703009306F7FF2320EC
:10169000D30001E731016FE05FA11EC416C23EC056
:1016A000EFF05FABB7070020CD4593844700EFE034
:1016B0003FA5420541810605824726951A21BE8530
:1016C000D146130680022285EFF04F8FEFF09FA8DE
:1016D000CD45EFE0FFA2420541810605AA948A208C
:1016E000EFE01FF8924213077011169442044180F4
:1016F0008247A2431383019363778700B30250406C
:10170000C20293D202019E97C207C1831307B00D94
:10171000E37BF7F6B3037040C20393D30301A5B78D
:10172000EFE21F98014751119306000F13060014B2
:1017300081450145EFF08F88B165938505B81305A4
:10174000803EEFF0AFFE370700208347C70A81E7EE
:1017500031016FE09F95B7040020130400059384C6
:101760004400EFF03F9F2AC4EFF0DF9E2AC0EFF065
:101770007F9ECD45EFE0DF98420541810605824717
:10178000269516219305000F3E8536C2EFE05F9740
:10179000224693170501C1879305001432853EC088
:1017A000EFE01F968247924642052946BE85418555
:1017B0007D14EFF0EFA61374F40F3707002055F0F7
:1017C00069B7EFE2FF8D014751119306000F130631
:1017D000001481450145EFE07FFEB165938505B8B2
:1017E0001305803EEFF08FF4370700208347C70AC8
:1017F00081E731016FE07F8BB704002013040005FF
:1018000093844400EFF01F952AC4EFF0BF942AC0E0
:10181000EFF05F94CD45EFE0BF8E420541810605B4
:101820008247269516219305000F3E8536C2EFE0CC
:101830003F8D224693170501C18793050014328519
:101840003EC0EFE0FF8B8247924642052946BE85A7
:1018500041857D14EFF0AFB51374F40F3707002006
:1018600055F069B7EFE2DF83EFF0DF92EFF07FA58D
:10187000EFF0FFACEFF07FB4EFF01FC0EFF03FC927
:10188000EFF05FD3EFF07FDD613D253F6FE0FF813B
:10189000EFE21F81138681901307460193878190A1
:1018A000014596238907369542054181E31BF7FEE2
:1018B000A945EFE03F8237040240B7250140A94621
:1018C00013868190931405019385C5441305840004
:1018D000EFF00FFE130584008545EF00C07DC18049
:1018E000856523A09192938525CB2685EFE08FFC1B
:1018F0009305F03FEFE08FFD138441939305000BB8
:1019000008C00145EFE03FD51305007EEFE05FD54D
:101910003735000013054529EFE01FE51040B735C6
:1019200000009385052A13854192EF10A05641656A
:101930000115EFE0FFD213854192EFE0FFE21305BE
:10194000007EEFE0FFD1373500001305452AEFE0B8
:10195000BFE16FE08FF5EFE2AFF49305000C0145B6
:10196000EFE07FCF1305007EEFE09FCF373500001B
:101970001305C538EFE05FDFB7070040D233B73556
:101980000000420641829385052A1385419223ACCB
:10199000C192EF1020501305F07FEFE07FCC13854C
:1019A0004192EFE07FDC1305007EEFE07FCB37351F
:1019B000000013058539EFE03FDB6FE00FEFEFE24A
:1019C0002FEE01479306000F1306001481450145D1
:1019D000EFE0DFDE0145EFE05FC91305007EEFE0D9
:1019E0003FC881450145EFE01FC7373500001305AB
:1019F000852AEFE07FD741657D15EFE07FC6C145C1
:101A00000145EFE05FC5373500001305052DEFE018
:101A1000BFD5930500020145EFE0FFC33735000055
:101A20001305052EEFE05FD4930500030145EFE0B9
:101A30009FC2373500001305052FEFE0FFD2930555
:101A400000040145EFE03FC1373500001305453084
:101A5000EFE09FD1930500050145EFE0DFBF37358B
:101A6000000013054531EFE03FD093050006014526
:101A7000EFE07FBE3735000013058532EFE0DFCEA3
:101A8000930500070145EFE01FBD37350000130542
:101A9000C533EFE07FCD930500080145EFE0BFBB04
:101AA0003735000013050535EFE01FCC930500091D
:101AB0000145EFE05FBA3735000013054536EFE02A
:101AC000BFCA9305000A0145EFE0FFB837350000B3
:101AD00013058537EFE05FC96FE02FDDEFE24FDCE4
:101AE0000545EF006070371401402D2CEF00104BBE
:101AF000992D13050480212537150140092513056B
:101B00000440F52B3745014013050580EF005037A1
:101B1000716513050520EF00504FB707002083A51E
:101B2000070C373500001305C539EF10603455290F
:101B3000AA85373500001305C53AEF1060333734F6
:101B40000140130504C0EF00B00D0146C145130567
:101B5000900CEFF00F96B7040240138584057921AD
:101B6000370600209306E003930544C313060603DB
:101B700013858405EFF04FAB0546130504C09305AC
:101B80000010EF0010298545130504C0EF007024F4
:101B900037250140130505406D24EFF02FC513854F
:101BA0000403A921EFF0EFD637350140EF00407F65
:101BB000EFE05F8A13054006EF00904137040020F4
:101BC000EFF0FFDFB1650565938505B8130585382E
:101BD000EFF0CFB58347C40A81E7EFF0BFC8CDB7B8
:101BE000EFF01FCBEFF03FD76545EF00703EDDB75C
:101BF000EFE20FCB371402401C403707FFF86111AA
:101C000093E717001CC05C404145F98F5CC01C4045
:101C10003707F7FE7D17F98F1CC01C403707FCFF04
:101C20007D17F98F1CC05C4041777D17F98F5CC030
:101C3000B7079F001CC431251C4C3706020093E7F0
:101C400007021CCCB717014003A707409386074043
:101C50001377F7F023A0E74003A7074013670708AF
:101C600023A0E74089479CCA02C002C21C4C370728
:101C70000140A16693E717001CCC5C43D58F5CC381
:101C80001C404167B7160240D98F1CC009679C42AF
:101C9000F18F3EC2824785073EC0924781E7824767
:101CA000E397E7FEB71702409C431397E700635999
:101CB000070685473EC2124785476310F706B727D8
:101CC00002409843C176FD16719B98C398431367F1
:101CD000170098C3B7170240D843D8C3D843758FAD
:101CE000D8C3D843C166558FD8C39843B7060001FF
:101CF000558F98C3984393166700E3DD06FED843DB
:101D0000B7160240719BD8C3D84313672700D8C3C6
:101D10002147DC42B18BE39EE7FE21016FE0EFB883
:101D200002C251BFEFE2CFB7371702405C4337041E
:101D300000209146B18B1304040C6385D700A146A3
:101D40006382D704B7376E01938707601CC0B7164C
:101D50000240DC420840918313F7F700B7070020E8
:101D60009387070BBA978C23DC4293F5F50F93F713
:101D700007083357B50081E7EFE0CFB52A8718C0D1
:101D80006FE0AFB25C43B777DC02938707C07DBFDB
:101D900001A097F1FF1F938161B5138181F11305B4
:101DA000000A97E5FF1F9385E52517E6FF1F130639
:101DB000662563FAC5008322050023A0550011059E
:101DC0009105E3EAC5FE171500001305E55F97E5E9
:101DD000FF1F9385252317E6FF1F1306263163FA9D
:101DE000C5008322050023A0550011059105E3EAF3
:101DF000C5FE17E5FF1F1305652F93854194637793
:101E0000B500232005001105E36DB5FEB7220000E3
:101E100093820288739002308D427390428097E2E1
:101E2000FFFF9382221E93E2320073905230EFF054
:101E30003FDC970200009382A2CA739012347300B1
:101E40002030B727014093870740631EF500EFE27B
:101E50002FA585451305002031238145130500205A
:101E600011236FE08FA482805C413707F1FF1307D5
:101E7000F7EF7D8FDC419441A207D58FD98F5CC1EC
:101E80001C4537F7F1FF1307D77FD4457D8F9C4959
:101E9000D58F94458606D58FD98F1CC55C553707DD
:101EA00010FF7D177D8FDC29FD1793F7F70FD20701
:101EB000D98F5CD582801C4589C593E717001CC566
:101EC0008280F99BEDBF1C4589C593E707101CC5AF
:101ED000828093F7F7EFE5BF1C4593E787001CC5A9
:101EE000828008450D81058982801C4593E7470063
:101EF0001CC5828008450981058982801C4591C5E1
:101F000037075000D98F1CC582803707B0FF7D1777
:101F1000F98FD5BFA54763F8B704138765FF9317FB
:101F200017008322C500BA971D433313F3001343F0
:101F3000F3FF33735300B397F600B3E767005CC554
:101F4000994763E3C7047D16931726003E965859B8
:101F5000FD47B397C70093C7F7FFF98FB395C50047
:101F6000DD8D4CD982809397150003230501AE9730
:101F70001D473317F7001347F7FF33776700B39711
:101F8000F6005D8F18C96DBFB14763E2C7026516E1
:101F9000931726003E961859FD47B397C70093C77D
:101FA000F7FFF98FB395C500DD8D0CD982804D16F2
:101FB0001317260054553A96FD47B397C70093C7A9
:101FC000F7FFF58FB395C500DD8D4CD582805C4160
:101FD000370700FA7D17F98F5CC15C41DD8D4CC17C
:101FE0008280B7F7FF1F03A5477C82801C414167B1
:101FF0007917F98F1CC12320050023220500232413
:102000000500B707024023260500138787006317E2
:10201000E500D8431367F700D8C382801387C70150
:102020006316E500D8431367070FFDB7138707034F
:102030006318E500D8438566938606F0558FE9BF9F
:10204000138747046315E500D843BD66C5BF1387F2
:1020500087056316E500D843B7060F00C5B7138799
:10206000C7066316E500D843B706F000C1BF138763
:102070000708E314E5FAD843B706000FC1B71841C3
:10208000E177BD0794517D8F9C45D58F9449D58FBD
:10209000D449D58F944DD58FD44DD58FD451D58F6C
:1020A0009455D58FD98F1CC1DC455CC19C411CC5A2
:1020B000DC415CC582801C4189C593E717001CC1C7
:1020C000828041677917F98FDDBF1C4101C6DD8D24
:1020D0000CC1828093C5F5FFFD8DDDBFB7070240BF
:1020E0009C437D8D3335A0008280EFD27FFBEFF0E3
:1020F000FFFE6FD09FFBB7070240C8C38280EFD2BC
:102100003FFAB717014013870780631AE50085453A
:102110001145892C81451145B1246FD01FF96318F1
:10212000F500854541453D2C81454145F5B79387EF
:102130000740E314F5FE854513050002252481457B
:1021400013050002D1BFEFD2BFF585450545192C17
:1021500081450545012C6FD05FF5944593F7060145
:1021600093F2F60081C7DC41B3E2F20083D30500AD
:1021700093F7F30FA5C303230500611122C226C004
:102180008147130480029304800405473316F70047
:1021900033F7C3006312E602939527003D473317D8
:1021A000B7001347F7FF33736700B395B20033E30B
:1021B0006500639D860050C985072147E397E7FCCA
:1021C000124423206500824421018280E39696FE1A
:1021D00010C9DDB7828048456D8D3335A0008280FF
:1021E0000CC982804CC9828023AEA192828083A6D2
:1021F000C193854718216390F6021C31639CD70276
:102200003C219A0793E707F8B7E600E093F7F70F4A
:10221000BA962380F6408546935757003397E600D9
:10222000544189CE938707048A07B7E600E0B69742
:1022300098C38280EDF33C219A07F9B7938707068C
:10224000E5B7371702401C430E0593F777F05D8D15
:1022500008C38280B7160240DC4241771307F77F3C
:10226000F98F5D8DC8C28280EFD29FE3371702409D
:102270005C4391462A84B18B6385D700A146638075
:10228000D708B7376E01938707601CC0B7160240A6
:10229000DC42918313F7F700B70700209387870D7F
:1022A000BA978C23DC42184093F5F50F93F7070893
:1022B0003355B70081E73A85EFD0DFE148C008C465
:1022C00048C4B7170240DC438D46AD83FD8B13D75E
:1022D00037008A07F18BD98F13F6370113F73700D0
:1022E00063F4C600138747FFB70700209387470CA6
:1022F000BA978C23EFD01FDE08C86FD01FDB5C437A
:10230000B777DC02938707C049B799C537170240F2
:102310005C4B5D8D48CB8280B7170240D84B13458C
:10232000F5FF798DC8CB828099C5371702401C4FC5
:102330005D8D08CF8280B7170240984F1345F5FF97
:10234000798D88CF828099C5371702405C4F5D8DAB
:1023500048CF8280B7170240D84F1345F5FF798DDB
:10236000C8CF828099C5371702405C475D8D48C74A
:102370008280B7170240D8471345F5FF798DC8C74B
:10238000828099C5371702401C4B5D8D08CB828037
:10239000B7170240984B1345F5FF798D88CB8280A3
:1023A000B7370140631EF500EFD29FCF8545056525
:1023B000EFF05FFB81450565EFF0DFFA6FD0FFCEF0
:1023C00082801A218D6793870704B6217D8F9E2115
:1023D000D58FD621D58FF621D58F9625D58FB625C9
:1023E000D58FD625D58FF625D58FD98F1EA19E29BD
:1023F0001EA982801E2189C593E707041EA1828041
:10240000C207C18393F7F7FBC207C183C5BF5E2133
:1024100001C6DD8D4EA1828093C5F5FFFD8DDDBF28
:10242000EFD21FC8B7370140938707C0631FF5007D
:102430000564854513050480EFF0DFF2814513053F
:102440000480EFF03FF26FD05FC6B7070040E31C97
:10245000F5FE85450545EFF0DFF281450545EFF0D6
:102460005FF2D5B71E2137370140130707C0C207F7
:10247000C1836306E500370700406316E500BA2113
:1024800093F7F7F8D98FFA2193F7F7CFC207C183F3
:10249000D98F1EA1DE215EB59E211EB5B737014042
:1024A000938707C06314F5009C251EB985475EA974
:1024B00082801E31922103D32500C207C183F99B7C
:1024C000C207C1831EB11E3156211A2DC207C18316
:1024D000420741831377C7F8518F9225F59BC206B7
:1024E00033666600D18F37360140130606C0C182BD
:1024F0006310C502B225DD9B03D3E500D18FD22145
:10250000ED9B93F6F6CFD18FD22533666600D18E40
:1025100056A11AADFA2158D91EB182801E316577B5
:102520001307F7CFC207C183BD9BC207C1831EB18A
:102530001E31562103D38500C20713960601162DBE
:10254000C18393F7F7FD758F96214182A206558FBF
:10255000B62142074183B3E666009206D58FB736AF
:102560000140C207938606C0C183631ED502B6250B
:1025700093F7F7F703D3C5009206D58FD621C2078C
:10258000C183920693F7F7FBD58FFD769386F63FCE
:10259000F18EF225C207C183336666000A06D18E2A
:1025A00013960601418252A11AADFA2118DD1EB11F
:1025B0008280BA219E21D98FDA21D98FFA21D98F31
:1025C0009A25D98FBA25D98FDA25D98F2312F50408
:1025D00082801E2189C593E717001EA18280C20751
:1025E000C183F99BC207C183CDBF8357450491C501
:1025F0002167D98F2312F5048280C607C583DDBF0A
:102600005E2501C6DD8D4EA5828093C5F5FFFD8D4B
:10261000DDBFEFD2FFA8EFF0BFFE6FD01FA91E21D4
:1026200089C593E707081EA18280C207C18393F77B
:10263000F7F7C207C183C5BF1E2DC207C183DD9B4B
:10264000DD8D0EAD82801A2DFD779387F77FF98F90
:10265000A205CD8FC207C1831EAD82801E294A25E7
:10266000ED8F4205418189C76D8D3335A000828091
:102670000145828093C5F5FFC205C1810EA9828004
:10268000B747014093870780631EF500EFD25FA133
:1026900085451165EFF01FCD81451165EFF09FCCA9
:1026A0006FD0BFA08280EFD2BF9F1629F577FD17AC
:1026B000F58FF621DA252111D58F1EA95625FD7734
:1026C0009387379FF58FD6212A842EC0D58F9625E4
:1026D000D58FB625D58F5EA55E29C207C18393F736
:1026E000F7CF5D8F5AA94800EFF01FB8B7470140F8
:1026F0009387078082456312F406C2475A241395D4
:1027000017003E9542070E0541873E958C41635860
:1027100007048605EFD01F9C930540062AC0EFD022
:102720007F9B824793144500930540063E85EFD07A
:102730003F9D5E24C207C18763D507020E0593053E
:10274000400613052503EFD0FF981D89C98CC204EC
:10275000C18006A461016FD05F95B24745B78A0575
:1027600055BF12059305400613052503EFD09F962C
:102770003D89E9BF91C55E250967D98F5EA5828035
:102780005A25F977FD17F98FD5BF93F5F51F4EA19F
:1027900082800A216D8D3335A0008280EFD25F9058
:1027A000B707002003A5070CB7157A00938505200D
:1027B000EFD05F921375F50F2381A1949317550005
:1027C000898F8A073E950E052390A1946FD0FF8DC7
:1027D000EFD21F8D37F400E05C40AA85F99B5CC006
:1027E00003D50194EFD01F8D08C8232404001C409A
:1027F00093E717001CC0B7F700E0D843058B75DFDF
:102800009843799B98C36FD05F8AEFD27F892A84DF
:1028100011651111854513050502EFF0FFB093070F
:1028200000027C80371501408D473EC28A85E14712
:10283000130505403EC4EFF05F9222C637440140C5
:10284000B70708006C00130504803ECA02C8231CA9
:102850000100EFF05FE5854513050480EFF09FF17F
:1028600071016FD09F84EFD2BF837111AE84014498
:10287000635FC402B7470140138707803A85930519
:10288000000432C0EFF0FFF0B74701401387078024
:1028900002466DD5338784008305070013850780C2
:1028A0000504C205C181EFF05FEE0246D1B7328563
:1028B00011016FD08FFF411106C62EC00DCD1841FA
:1028C000AA8705C358417D5511CB8546631BD700A8
:1028D00098472300070023A207000545B2404101A5
:1028E00082809847824614A39847050798C7D84323
:1028F0007D17D8C3DDB705468A85EFF0DFF6F1BF57
:10290000011122CC2EC206CE26CA2A848147930505
:102910000002634506029245BE95838505008DE55C
:1029200063D8C70263D4E702198E1305000293F53A
:1029300026002AC089C501E7930500032EC0858AB9
:1029400081449DEAB28415A08507F1B71D8EF1BFC1
:102950000146E1BF824522853AC832C63EC4EFF047
:102960009FF5A24732464247FD14E34590FEB284EC
:10297000635306008144058E63C7E702A68792462B
:10298000338797403697830507009DEDB2846346F1
:102990009004635306000146F2406244D24433057A
:1029A000F600056182801D8FBA879305000322859A
:1029B00032C83EC63AC4EFF01FF0B2472247424643
:1029C000FD17E5F7BA945DBF228532C63EC4EFF02D
:1029D0009FEEA247324685075DB78245228532C405
:1029E0003EC2EFF05FEDFD14224692474DB73971BC
:1029F00006DE22DC26DA3EC232833A8691ED92462A
:102A00009307000301476C08FC86EFF07FEFF2505C
:102A10006254D25421618280AA843684AE8791CADE
:102A2000294701446317E30063D50500B307B040AD
:102A300005448646A309010213073103938666FC09
:102A400036C49A853E8532CA3AC81AC63EC0EFD00F
:102A50002FEBA546824732434247524663D4A60035
:102A6000A2463695130505039306F7FFA30FA7FEAD
:102A70009A853E8532CC3ACA1AC83EC636C0EFD0D7
:102A80006FE5B24742435247624663FD670409CC93
:102A900029CE9247898BB1CB9305D002268532C4CB
:102AA000EFF07FE122467D169247918B85C706475E
:102AB0009307100632C49305000326856311F704BB
:102AC000EFF07FDF930580072685EFF0DFDE2246FB
:102AD000090479161647924682452685EFF05FE293
:102AE000229535B7AA870247A9BF82469307D0022D
:102AF0000144A38FF6FE9307E7FF3EC075B7EFF0E2
:102B00009FDB93058005C9B701458280014582801E
:102B1000130181FD22D026CE06D22AC4AE82328491
:102B200002C681448385020091EDA24789C7814591
:102B30003E85EFF05FD8925002542685F24413018F
:102B400081028280930750026389F500224516C8EE
:102B50008504EFF05FD6C24205A083871200138779
:102B60001200639DB7002245930550023AC8EFF06A
:102B70009FD442478504BA8285026DB7DDD793069C
:102B8000B0026389D70463C8F600930630026386F7
:102B9000D704814705A09306D002638AD700930625
:102BA0000003E398D7FE13872200894721A01387EB
:102BB00022008547830607001306B0026383C6041C
:102BC0006341D60213063002638BC602BA82014506
:102BD000A54681A0138722006DBF1387220091476D
:102BE000D1BF1306D0026389C60013060003E39F1A
:102BF000C6FC93E7270031A005078547C1BF93E7CF
:102C000047000507E1B713162500329506053A95EA
:102C1000850203860200130706FD9375F70FE3F4A0
:102C2000B6FE1307E0029946631EE6008502814660
:102C3000A54503860200130606FD1377F60F63F51C
:102C4000E50236C6038702001306A006630DC70A15
:102C50006343E6021306C0046307C70A130680062F
:102C6000630CC70881452DA813972600BA968606DF
:102C7000B29685027DBF130640076306C708130698
:102C8000A0076302C7081306C0068145631AC70080
:102C9000038612008D456314E60085029145850286
:102CA00003860200930300061307100663C4C300E3
:102CB000130710049303700663C4C30693035006FE
:102CC000635676189303700463C1C30493055004DC
:102CD000635EB61613073004E310E6EA1840930368
:102CE000440016CA230CE1001EC8A30C01000147D2
:102CF000BE862A862C0849A8038612008145E31166
:102D0000E6FA890271BF8502B1BF93063006E30778
:102D1000D6FC63CFC606930680056303D602A9BD21
:102D2000930630076304D60463CBC6029306F0060D
:102D30006305D60E9306000793E74700E31ED6E22D
:102D400091466392D50C930384000C40504016CA00
:102D50003AC23EC01EC8AA870147C14681A8930651
:102D60005007630BD6069306800745BF1840B73659
:102D70000000930344009385C63B11C3BA853247D4
:102D800016CA1EC8BE862A862245EFF07FB715A058
:102D900091466395D502930384000C40504016CAB7
:102DA0003AC23EC01EC8AA870547A9462245EFF091
:102DB000BFD5C243AA941E84D2427DBBB2460C400A
:102DC00016C836C23AC011042A87854629462245CC
:102DD000EFF0FFC1AA9441B39146639DD5009303E0
:102DE00084000C40504016CA3AC23EC01EC8AA8792
:102DF000014765BFB2460C4016C836C23AC011043E
:102E00002A878146E1B7B24616C80C40414636C211
:102E10003AC011042A8781465DBF9146639ED50062
:102E2000930384000C40504016CA3AC23EC01EC8EC
:102E3000AA870147A1469DBFB2460C4016C836C2BC
:102E40003AC011042A878146214651B70C40130627
:102E5000840040403AC22A87224532C83EC02286BA
:102E6000B687A94616CAEFF07FCAAA944244A9B70A
:102E70001301C1FD2EC832CAAA851008014506C635
:102E800036CC3ACE3ED032C0EFF09FC8B2401301EC
:102E900041028280130141FD32CE3ED42AC6700821
:102EA000FD57480006CC36D03AD202C23EC432C0EA
:102EB000EFF01FC6E2401301C10282800000000053
:102EC0000000000000001010101010100010000092
:102ED0002828280000000000000024247C24487CCE
:102EE00048480000385450381454543810002054C6
:102EF000583028541408000010282810344848344A
:102F00000000101010000000000000000810202039
:102F10002020202010082010080808080808102089
:102F200010381028000000000000000010107C1075
:102F30001000000000000000000000101010000051
:102F40000000003800000000000000000000001039
:102F500000000808101010102020000038444454CD
:102F6000444444380000103050101010101000007D
:102F7000384444040810207C000038440418040439
:102F80004438000008182828487C080800007C40C5
:102F900040780404443800003844407844444438BD
:102FA00000007C0408101020202000003844443821
:102FB000444444380000384444443C04443800004D
:102FC00000001000000000100000000000100000D1
:102FD0000010101000000C3040300C000000000009
:102FE000007C007C000000000000601804186000F5
:102FF00000003844040810100010000038444C54FD
:103000005C404038000010282828287C44440000F8
:103010007844447844444478000038444040404078
:1030200044380000704844444444487000007C40E8
:10303000407C4040407C00007C4040784040404024
:103040000000384440405C44443800004444447C20
:103050004444444400003810101010101038000090
:1030600004040404040444380000444850605048F8
:1030700048440000404040404040407C0000446CD8
:103080006C5444444444000044646454544C4C44E0
:1030900000003844444444444438000078444444E4
:1030A00078404040000038444444444454380400CC
:1030B0007844444478484844000038444030080488
:1030C000443800007C101010101010100000444410
:1030D0004444444444380000444444282828101000
:1030E000000044445454546C2828000044282810FC
:1030F0001028284400004444282810101010000014
:103100007C0408101020407C0000181010101010D3
:103110001010101820201010101008080000301097
:10312000101010101010103010282844000000005B
:103130000000000000000000000000FE2010000061
:10314000000000000000000038443C444C34000003
:1031500040405864444464580000000038444040F3
:10316000443800000404344C44444C340000000053
:1031700038447C40443800000C107C1010101010B3
:1031800000000000344C44444C34047840405864FF
:10319000444444440000100070101010101000004F
:1031A000100070101010101010E040404850605097
:1031B00048440000701010101010101000000000A3
:1031C0007854545454540000000058644444444417
:1031D00000000000384444444438000000005864B3
:1031E0004444645840400000344C44444C3404048B
:1031F000000058644040404000000000384430085F
:1032000044380000202078202020201800000000F2
:10321000444444444C34000000004444282828100E
:10322000000000005454546C28280000000044287A
:10323000101028440000000044442828101010609A
:1032400000007C081020407C000018101010202086
:103250001010101810101010101010101010301046
:103260001010080810101030000000744C0000000E
:10327000000000000B14081E221D181E1B1A242B10
:103280000606020F09160920211B131917151E2BFC
:103290000405020E414443312D4348373A200000D3
:1032A00025346400206D56004348333256303033A5
:1032B000205350574D2D444D412D54494D312053ED
:1032C00050492D444D412D494C493933343100008A
:1032D000312E2052616E646F6D20646F74000000A7
:1032E000322E20486F72697A6F6E206C696E6500AD
:1032F000332E20566572746963616C206C696E654B
:1033000000000000342E2052616E646F6D206C69E5
:103310006E650000352E2043656E7465722052651F
:103320006374616E676C6500362E2052616E646F47
:103330006D2052656374616E676C6500372E2046A0
:10334000696C6C65642072656374616E676C65009E
:10335000382E204D6F76652052656374616E676C00
:1033600065000000392E2052616E646F6D20436944
:1033700072636C650000000031302E2046696C6C71
:10338000656420436972636C6500000054494D32E6
:103390002D434E543A200000206D7300537973740E
:1033A000656D436C6B3A25640D0A000043686970D3
:1033B00049443A253038780D0A000000286E756CB3
:0433C0006C29000074
:1033C400FFFF000000000F00E003EF0300780F7818
:1033D400E07B18C6EF7B1F00E007FF0700F81FF82B
:1033E400E0FFFFFF20FDE5AF18FC00000100000036
:1033F40005000A000F00140019001E002200270017
:103404002C003000340039003D00410044004800E5
:103414004B004F0053005500570059005B005D00FE
:103424005F00600061006300630064006400640086
:1034340063006300610060005F005D005B00590091
:103444005700550053004F004B0048004400410012
:103454003D003900340030002C00270022001E00FB
:10346400190014000F000A0005000000010000000C
:103474000102030405060708010203040506070800
:10348400006CDC020204060804080C100810182062
:103494001020304020406080010203040506070824
:0834A4000102030405060708FC
:00000001FF
