:100000006F10305A00000000F2010000F4010000FF
:1000100000000000000000000000000000000000E0
:1000200000000000000000000000000000000000D0
:10003000A01D000000000000A01D00000000000046
:10004000A01D0000A01D0000A01D0000A01D0000BC
:10005000A01D0000A01D0000A01D0000A01D0000AC
:10006000A01D0000A01D0000BE0E0000A01D00008D
:10007000A01D0000A01D0000A01D0000A01D00008C
:10008000A01D0000A01D0000A01D00009A0F000090
:10009000A01D0000A01D0000BE0F00000000000019
:1000A000511126C022C206C4828282441244A24058
:1000B000310182802A86014593F6150091C232955E
:1000C00085810606F5F9828000000000634E050276
:1000D00063C305042E86AA857D5515C285466378BF
:1000E000B6006356C00006068606E36CB6FE014500
:1000F00063E4C500918D558D85820582F5FA828075
:100100008682C93F2E8582823305A04063D70500D1
:10011000B305B040C1B7B305B0408682653F330533
:10012000A0408282868263C70500634905005D376F
:100130002E858282B305B040E35B05FE3305A04007
:10014000513F3305B040828200003D432A876373EC
:10015000C3029377F700BDEFADE5937606FF3D8AC6
:10016000BA960CC34CC30CC74CC74107E36BD7FE10
:1001700011E28280B306C3408A0697020000969679
:100180006780A6002307B700A306B7002306B700C1
:10019000A305B7002305B700A304B7002304B700E5
:1001A000A303B7002303B700A302B7002302B700DD
:1001B000A301B7002301B700A300B7002300B700D5
:1001C000828093F5F50F93968500D58D9396050162
:1001D000D58D61B793962700970200009696868288
:1001E000E78086FA9680C1171D8F3E96E374C3F8A8
:1001F000A5B701A0B707EFBE37E700E09387070870
:100200003CC701A0B7070240C8DFCCDB370702407C
:1002100081476398C700370702401C5BF99B1CDBD2
:100220008280145B93E6160014DB544393E60620A9
:1002300054C3144393F60620EDDE8507C207C1833D
:10024000C9BF373701401E27898BF5DF4205418141
:100250004AA7373701401E2793F70708EDFF828032
:10026000EFF21FE4373701401623FD779387F77FBE
:10027000F58F2A841EA3A14537150140EF10507752
:10028000C14537150140EF10F07622855D3F31BD45
:10029000EFF21FE1373701401623FD779387F77F91
:1002A000F58F2A841EA3A14537150140EF109074E5
:1002B000C14537150140EF10F07322855937F5B36A
:1002C000373701401E27898BF5DF4AA737370140B2
:1002D0001E2793F70708EDFF8280EFF27FDC3737A8
:1002E00001401623856793870780D58FC207C18396
:1002F0002A841EA3A14537150140EF10706FC14538
:1003000037150140EF10106F22855D3F79BBEFF28A
:100310003FD951112A841305A00236C02EC432C21F
:10032000853F22855D3F12463285453F1305B00269
:100330008537A2452E85553782463685793F130588
:10034000C002B937310195B3EFF29FD537040020D1
:100350002E83B28461112A8793D586001306C40EBA
:10036000814763CF9704C145371501401AC23AC08F
:10037000EF105068024712431386F4FF131507016C
:100380004181931603012A96C1824206B6854182B5
:10039000BD3FA14537150140EF109065A68563D399
:1003A000040081458605C20505461305C40EC181BA
:1003B000913DC14537150140EF1090632101F5B122
:1003C0008507C2070CA214B2C187090659BFEFF214
:1003D0003FCD370400202E87B28461112A8313D6C3
:1003E00086009305C40E814763CF9704C145371536
:1003F00001403AC21AC0EF10F05F124702439386E1
:10040000F4FF93150701C18113160301AE964182D3
:10041000C2063285C182E53DA14537150140EF1086
:10042000305DA68563D3040081458605C205054677
:100430001305C40EC181F933C14537150140EF10D2
:10044000305B21019DB18507C20790A194B1C1879E
:10045000890559BFEFF2DFC401118545414502C04E
:1004600002C202C402C602C802CA02CC231E010094
:10047000EF10906C85450565EF10106C85450545BE
:10048000EF10B0690D44A147C1448A85371501407A
:100490007C8026C422C2EF10504D8A85371501405A
:1004A000648026C422C2EF10504C930700067C8063
:1004B0008A85E147371501403EC422C2EF10F04A59
:1004C000930700087C808A859147371501403EC418
:1004D00022C2EF109049B7C704013EC6B707000219
:1004E0003ECA6C009D4737350140FC8602C802CCED
:1004F000EF10306E0546894537350140EF103072F8
:10050000854537350140EF10F06F371702405C4BDF
:10051000C1453715014093E717005CCBB707024090
:100520000D671307070B23A807029386070398DBC1
:10053000B7370140B1079CC6EF10D04B4545893B0A
:1005400013058007EF20C0291305000C9133130514
:10055000300239331305100C253B41451133130587
:10056000500C3D331305E003E53913058002CD3906
:100570001305700C313B13056008DD311305600372
:10058000013B1305800EE9391305A003113315450E
:10059000C13913057003ED390145D9311305A003A5
:1005A000C539130550056D391305100BD5310145BB
:1005B0004539614575311305600BD93921454D31F8
:1005C00013052008713913057002593913056002AB
:1005D000C131054571311305000E5D39A14537154F
:1005E0000140EF10F0400D650546C1451305452952
:1005F00011392945EF20C01E1305100E5139A145B0
:1006000037150140EF10D03E0D650546C145130575
:100610004528CD3E2945EF20A01C1305100B8D3930
:100620001305000A3539130500029D314D458D3102
:100630002945EF20E01A1305900299392945EF204A
:10064000201A1305C002A931C14537150140EF102A
:10065000303A056199BC2392A1902393B190828096
:10066000B70700202390A7008280B70700202394BB
:10067000A70E828001151377F50F9307E00563E558
:10068000E70EEFF2FFA1B707002003D6870E511146
:1006900037040020935786003EC4B707002083D755
:1006A00007001376F60F814613D7870093F7F70FED
:1006B0003EC293172500AA970D6586071305C5EC62
:1006C0003AC03E959305C40EFD500421B6821943ED
:1006D000168793871200B3D364408902C207C2020F
:1006E00093F31300C18393D202012E97638803060C
:1006F0008243AE9723007700124798A37D13E31936
:1007000013FCB906C206C1829307C0080505E39E23
:10071000F6FA03D5419083D5619013066500420631
:1007200093869500C206C1824182D536A145371510
:100730000140EF10F02BC14537150140EF10902B11
:1007400005461305C40E9305C0086D3CC145371519
:100750000140EF10F02931016FF03F95A243AE97B1
:100760002300770090A359BF8280EFF27F932A8401
:100770000305040019E16FF05F93ED3D138741908D
:100780001E230504A1071EA3E5B7EFF27F917111A7
:10079000AA842EC037150140C1453284EF10902540
:1007A000824626862685B6859D3622853D36C145FC
:1007B00037150140EF10D02311016FF01F8FEFF2BA
:1007C0003F8EB7030020AE82B68451112A83935521
:1007D000870081479386C30E13941700420441801B
:1007E000639FC704C1453715014016C41AC23EC0F5
:1007F000EF1050208247A24212431386F7FF9386E0
:10080000F4FF96961A96C206420696851A85C1820C
:100810004182F53CA14537150140EF10701DB7032B
:1008200000201385C30E2686A285EFF0BF9DC1452B
:1008300037150140EF10D01B31016FF01F87338552
:10084000860005044204418085070CA13694C20746
:1008500018A0C18351B7EFF2BF84BA841317050102
:10086000211141873AC02ACA139705010245931303
:100870000601418793D3034136842EC832C6BA8518
:10088000A6861E863AC21EC4C1344243A2439305C3
:10089000F4FF9A950245C2051E86A686C1856D3471
:1008A0001247024542044184A6862286BA8505364F
:1008B000B247D24212471385F7FF16954205A68626
:1008C0002286BA854185213661016FF00FFEEFF275
:1008D0002FFD1301C1FD2A846313C50263D5B60041
:1008E000AE87B685BE8685063386B6404206BA8692
:1008F00041862285E93C130141026FF00FFBB2846F
:100900006390D5026354A6003284AA84138614002F
:10091000018E4206BA8641862285EFF0FFA2E1BF32
:10092000B383D54063D4D500B383B6406357940AEC
:10093000B382844063CD720AAE87A2853E84B387BA
:10094000B440C207C1833EC01316040113950601CB
:1009500083170100418241816357D40A3306C540A1
:100960004206418632C2054632C485876344D400BC
:10097000FD5636C4E3C1B4F8131304019396050180
:100980003ED01ECE16CC3ACA13530301C1823A861A
:1009900063DD7206B6851A8536C81AC6FD33324342
:1009A000C2465247E242F24382571246918F139653
:1009B0000701418293170601C18763DB0700824765
:1009C000B2972246C207C1873304C3004204418460
:1009D00093851600C205C18571BFB302944063C8F8
:1009E0007200B687A686BE84AE87A2853E8463D891
:1009F000B600AE87B685A2862684BE8489B7A68750
:100A0000B684BE862DBF098EA1BF9A8536851AC8C9
:100A100036C6A53B8257F243E24252474243B246B2
:100A200069B7EFF2EFE793170601C18305471D8F02
:100A300036844207B306F0401301C1FD86064187A4
:100A40003AC49394050113970601C1804187B38589
:100A500097003AC6131705014183C2053A8532C88B
:100A6000C18122863AC03EC20D339247024522869A
:100A7000B385F440C205C181093B024792472286F3
:100A8000A6853385E700420541810133024792473D
:100A90002286A6853305F74042054181FD31224774
:100AA0004243814763C66700130141026FF0EFDFE5
:100AB00063410702B2467D1342038906C206C18222
:100AC000139606013697418642071353034132C6F7
:100AD00041878507C207C1833EC2860785073E97C7
:100AE0004207418782473AD0124722861ACEB38204
:100AF000E70093170301C183B386F400C202C20664
:100B000093D20201C1821685B68516CC3EC436C882
:100B1000AD3912478247C2462286998FC207C183E8
:100B2000B6853E853ECA9531A247E2422286B3860B
:100B3000F440C206C1821685B68536C8B931C246B0
:100B4000D2472286B6853E85893182472247228652
:100B5000B382E7009247C20293D20201B386F40047
:100B6000C206C1821685B68516CA36C839392247EB
:100B70008247C2462286998FC207C183B6853E85C9
:100B80003EC821319247D2422286B386F440C20643
:100B9000C182B685168536C4CD3EC247A24622869E
:100BA0003E85B685DD368317410002577243DDBDB1
:100BB000EFF20FCF130181FD36C2131716008546E1
:100BC0003387E640139405013AC02A83B2872AC4CA
:100BD0008146014741801316170032C663D6E700ED
:100BE000130181026FF06FCCB304F3403306F300BE
:100BF000635C960293940701B302E340C1802246EE
:100C000063585606324682450507B296139616007B
:100C10002E966357C00013862500FD17AE9632C08E
:100C20002246050632C445BF9312070193D2020142
:100C3000B305540093930401124693D30301C205F4
:100C40001E85C1811AD236D03ECE3ACC16CA1EC8F5
:100C50002D3ED242C2431246B3055440C205C18163
:100C60001E852536850412538256F2476247BDBF62
:100C7000939302011246B385840093D30301C20506
:100C80001E85C1811AD23AD036CE3ECC16CA1EC8B5
:100C9000EFF0BFAFC243B30594401246C205C18115
:100CA0001E85EFF09FAED242125302578502F246E4
:100CB000E247B1B7EFF2CFBE1301C1FB2AC4AE8445
:100CC0001145854532C202CC02CE02D002DA02DCE6
:100CD00002DE82C002C602C8231A010002D202D478
:100CE00002D623180102EF10206585454145EF101B
:100CF000A064854513050002EF1000640565854575
:100D000013050580EF10406309470D44F8842C0853
:100D10004147371501403AD022CEEF1000458945B2
:100D200037150140EF10C04C1147930680022C0884
:100D300037150140F8843AC036D022CEEF10E04299
:100D40009546F484B716014061432C08138506408C
:100D50001AD022CEEF106041B71601409945614389
:100D600013850680EC842C081AD022CE373401403B
:100D7000EF10A03F130504C0EF10806BA2476C007A
:100D8000130504C0FD17FD14FC80648623190100BF
:100D900023170100230A0100EF10C06DC16793877C
:100DA0000707024712463EDAB707080089073EDE0A
:100DB0004C1893070010130504C0231CE102231DE7
:100DC000C102BEC0EF10E06F4C18130504C0EF1055
:100DD000E075B707C8003ED4B71700203ED64C10C8
:100DE0009167130504C02318F10202D2EF10607D51
:100DF000130504C08545EF105000130504C081455C
:100E0000EF109004130504C08145EF10D0041305C2
:100E100004C08545EF10B0018545130504C0EF10EF
:100E2000407C130141046FF04FA8EFF26FA713014C
:100E300041FC2A842EC2B28481451306C0020808F0
:100E400036C0EFF08FB08545054502C402C6EF10ED
:100E5000C04C2285EF10801A924782460C083EC88B
:100E6000C1473ECC930700083ED2930700103ED402
:100E7000930700403ED622858D6736CE3EDA26CADD
:100E800002D002D802DCEF10802085452285EF10C9
:100E900080239307A0117C8489475C8528008547BF
:100EA0003EC6EF10C035370502400546894513059B
:100EB0008505EF1080221301C1036FF00F9F7111A0
:100EC0003705020022C0EF10402329C1894537159C
:100ED0000140EF1040318547370400208945631BEE
:100EE000F50237150140EF10E030B73501409306A9
:100EF000E00313060403938585C3370502401305F9
:100F00008505253737050200EF10E01F0244110167
:100F10007300203037150140EF10802DB7350140A8
:100F20009306E00313060403938545C3F9B7EFF274
:100F30002F973111AA842E8405458545EF10A041D5
:100F400037050040EF10C04E2C00FD147D1437050E
:100F50000040648660842315010023170100EF1010
:100F600060510546854537050040EF10606A9307DC
:100F7000605205447C800A8595475C8122C2EF104F
:100F80000028854537050040EF10A065B707002011
:100F90002386870A51016FF04F91711122C03734B7
:100FA00001408545130504C0EF10406C130504C0D3
:100FB0008545EF10206D02441101730020308545F6
:100FC00037050040EF10806A85476310F5028145C0
:100FD00037050040EF10E060B70700208545370572
:100FE00000402386070AEF10E06973002030EFF21B
:100FF0002F8B1301C1FD61468145680002C002C20A
:1010000002C4EFF08F94854513050002EF10C03243
:10101000854513050020EF1020323165372401404B
:10102000EF10402413050440EF00B0623715014073
:10103000C1478A85130505407C8002C4EF10E01289
:10104000854737070E006C00130504403ECA3ACCB2
:101050002300F10202C602C802CEEF00F061B7051C
:10106000000213050440EF00907785451305044006
:10107000EF007066854513050440EF00D06413054A
:101080000440EF007066930404402685EF0070660C
:101090006DFD1305044037240140EF001066130472
:1010A00004402285EF0010666DFD130141026FE0E0
:1010B000DFFFEFE2FFFE1301C1FC2A842EC2B284DF
:1010C00081451306C002280036C0EFF00F88854521
:1010D0000545EF1080242285EF005072924782462A
:1010E0002C003EC4930700083ECE930700103ED06C
:1010F000930700403ED222858D6726C636CA3ED66B
:1011000002C802CC02D402D8EF0070781301410368
:101110006FE0BFF9EFE2DFF837240140B704024087
:10112000A946138681909305C444138584005137E2
:10113000138584008545EF0010798D46054613051B
:1011400004409D45EF00105E854513050440EF0007
:10115000F05B6FE09FF5B707002003A5C702A1462B
:101160001387C7021356B5009357F501B18FA98FA6
:1011700013561500B18F858B06055D8D9387F6FF9D
:1011800093960701C182F9FE08C31375F50F9317F3
:1011900015003E958280EFE2BFF09306000F5111DB
:1011A00001471306001481450145EFF04FE19965B1
:1011B000938505DC1305803E9D3BB706002083C761
:1011C000C60A81E731016FE05FEEB70400209307A4
:1011D0000014938444003EC4BD3FCD45EFE05FF270
:1011E00042054181060526950221B5372AC2A53759
:1011F0009305000FEFE0DFF012461317050141835E
:101200009305001432853AC0EFE09FEF0247420594
:101210002286BA854181EFF04FD7353F2AC2253F5C
:101220009305000FEFE0DFED124613170501418330
:101230009305001432853AC0EFE09FEC02470505A4
:101240004205BA8522864181EFF02FD429372AC280
:1012500019379305000FEFE0BFEA12460505131793
:10126000050141839305001432853AC0EFE05FE940
:10127000024742052286BA854181EFF00FD1E13D58
:101280002AC2D13D9305000FEFE09FE71246050506
:101290001317050141839305001432853AC0EFE02E
:1012A0003FE60247050542052286BA854181EFF0F7
:1012B000CFCDA247B7060020FD17C207C183E39C2C
:1012C00007F0F5BDEFE2DFDD711101479306000F76
:1012D0001306001481450145EFF06FCE99659385A3
:1012E00005DC1305803EEFF09FC4B707002003C75D
:1012F000C70A01E711016FE05FDBB704002001447A
:101300009384440093160401C18636C0A935CD45A7
:10131000EFE01FDF420541810605269582461A212E
:1013200013060014B68501450504EFF04FDA4204B8
:1013300041801307000FB7070020E315E4FC45BF09
:10134000EFE21FD6711101479306000F1306001438
:1013500081450145EFF0AFC69965938505DC13051E
:10136000803EEFF0DFBCB707002003C7C70A01E7E4
:1013700011016FE09FD3B70400200144938444001F
:1013800013160401418632C0F933CD45EFE05FD733
:10139000420541810605269502461A219306000F53
:1013A000814532850504EFF08FD242044180130756
:1013B0000014B7070020E315E4FC45BFEFE25FCE61
:1013C000311101479306000F1306001481450145B2
:1013D000EFF0EFBE9965938505DC1305803EEFF0D5
:1013E0001FB5370400208347C40A81E751016FE02D
:1013F000DFCB9533AA8485332AC8B13B2AC2A13BEF
:101400002AC0913BCD45EFE0BFCF42054181931704
:10141000150037050020130545003E9582461A2128
:101420009305000F36853AC6EFE09FCD124693161E
:101430000501C18693050014328536C4EFE05FCC08
:1014400042431316050141861A859305000F32C2E7
:10145000EFE01FCB93170501C18793050014268584
:101460003EC0EFE0FFC982473247A246124642051E
:10147000BE854185EFF0AFC5BDB7EFE27FC2611118
:1014800001479306000F1306001481450145EFF054
:101490000FB39965938505DC1305803EEFF03FA9F6
:1014A000B702002083C7C20A81E721016FE0FFBFB6
:1014B000B70400208147938444001393070113531A
:1014C00003013EC2330460401AC0EFF0DFC8CD45CF
:1014D000EFE01FC3420506044181420406050243B2
:1014E000418026951A219306040F13060414C206A0
:1014F0004206C18241829A851A85EFF0CFB59247A4
:101500001307E006B70200208507E398E7FA59BF02
:10151000EFE21FB9511101479306000F13060014A3
:1015200081450145EFF0AFA99965938505DC130569
:10153000803EEFF0DF9FB707002003C7C70A01E72F
:1015400031016FE09FB6B704002013048007938435
:101550004400EFF05FC02AC4EFF0FFBF2AC0EFF0F5
:101560009FBFCD45EFE0DFB9420541810605024648
:1015700026951A219305000F32853AC2EFE05FB835
:10158000A246131305011353030193050014368576
:101590001AC0EFE0FFB6024312474205D14651465A
:1015A0009A8541817D14EFF00FAB1374F40FB707E8
:1015B000002045F059B7EFE2BFAE51110147930645
:1015C000000F1306001481450145EFF04F9F996508
:1015D000938505DC1305803EEFF07F95B70700206B
:1015E00003C7C70A01E731016FE03FACB704002031
:1015F0001304800793844400EFF0FFB52AC4EFF092
:101600009FB52AC0EFF03FB5CD45EFE07FAF420573
:1016100041810605024626951A219305000F328561
:101620003AC2EFE0FFADA2461313050113530301C5
:101630009305001436851AC0EFE09FAC02431247B1
:101640004205D14651469A8541817D14EFF02F978E
:101650001374F40FB707002045F059B7EFE25FA409
:1016600081450145511101479306000F13060014EF
:10167000EFF0EF949965938505DC1305803EEFF05C
:101680001F8BB707002083C7C70A81E731016FE0CE
:10169000DFA19307803E23A8F192894389428147C5
:1016A000014413830193032703009306F7FF2320CC
:1016B000D30061DB1EC416C23EC0EFF0DFA9B7073E
:1016C0000020CD4593844700EFE09FA34205418170
:1016D0000605824726951A21BE85D146130680024B
:1016E0002285EFF0CF8DEFF01FA7CD45EFE05FA192
:1016F000420541810605AA948A20EFE07FF69242D6
:10170000130770111694420441808247A243138349
:10171000019363778700B3025040C20293D2020163
:101720009E97C207C1831307B00DE37EF7F6B3039C
:101730007040C20393D30301BDB7EFE27F96014728
:1017400051119306000F1306001481450145EFF077
:101750000F879965938505DC1305803EEFF02FFD1B
:10176000370700208347C70A81E731016FE0FF9305
:10177000B70400201304000593844400EFF0BF9DDC
:101780002AC4EFF05F9D2AC0EFF0FF9CCD45EFE04B
:101790003F9742054181060582472695162193050C
:1017A000000F3E8536C2EFE0BF9522469317050134
:1017B000C1879305001432853EC0EFE07F948247D5
:1017C000924642052946BE8541857D14EFF06FA5FE
:1017D0001374F40F3707002055F069B7EFE25F8C00
:1017E000014751119306000F13060014814501456E
:1017F000EFE0FFFC9965938505DC1305803EEFF073
:101800000FF3370700208347C70A81E731016FE0F4
:10181000DF89B70400201304000593844400EFF02F
:101820009F932AC4EFF03F932AC0EFF0DF92CD459B
:10183000EFE01F8D4205418106058247269516215E
:101840009305000F3E8536C2EFE09F8B224693172B
:101850000501C1879305001432853EC0EFE05F8A21
:101860008247924642052946BE8541857D14EFF0A8
:101870002FB41374F40F3707002055F069B7EFE267
:101880003F82EFF05F91EFF0FFA3EFF07FABEFF05F
:10189000FFB2EFF09FBEEFF0BFC7EFF0DFD1EFF088
:1018A000FFDB613D253F6FE05F80EFE26FFF0147A7
:1018B0009306000F1306001481450145EFE03FF049
:1018C0000145EFE09FDA1305007EEFE07FD9814507
:1018D0000145EFE05FD8373500001305852BEFE0B9
:1018E000DFE841657D15EFE0BFD7930500020145B4
:1018F000EFE07FD6373500001305052EEFE0FFE659
:10190000930500030145EFE01FD5373500001305AF
:10191000052FEFE09FE5930500040145EFE0BFD3FD
:101920003735000013054530EFE03FE4930500052F
:101930000145EFE05FD23735000013058531EFE058
:10194000DFE2930500060145EFE0FFD037350000E8
:1019500013058532EFE07FE1930500070145EFE0D5
:101960009FCF3735000013050534EFE01FE09305E6
:1019700000080145EFE03FCE37350000130545353F
:10198000EFE0BFDE930500090145EFE0DFCC37351E
:10199000000013058536EFE05FDD9305000A014581
:1019A000EFE07FCB373500001305C537EFE0FFDBF5
:1019B0009305000B0145EFE01FCA37350000130502
:1019C0000539EFE09FDA6FE04FEEEFE26FED13863F
:1019D00081901307460193878190014596238907DB
:1019E000369542054181E31BF7FEA945EFE08FEEF6
:1019F00037040240B7250140A9461386819093140D
:101A000005019385C54413058400EFF08FEA1305A3
:101A1000840085454D2DC180856523A091929385D5
:101A200025CB2685EFE00FE99305F03FEFE00FEAC5
:101A3000138441939305000E08C00145EFE0BFC138
:101A40001305007EEFE0DFC1373500001305452A9E
:101A5000EFE0BFD11040B73500009385052B13850B
:101A60004192EF10204441650115EFE07FBF1385DF
:101A70004192EFE09FCF1305007EEFE07FBE373548
:101A800000001305452BEFE05FCE6FE00FE2EFE2C1
:101A90002FE11305007EEFE0BFBC373500001305D2
:101AA000453AEFE09FCCB7070040D233B73500008E
:101AB000420641829385052B1385419223ACC19246
:101AC000EF10403E41650115EFE09FB9138541924B
:101AD000EFE0BFC91305007EEFE09FB83735000087
:101AE0001305C53AEFE07FC86FE02FDCEFE24FDB74
:101AF0000545EF006070371401402D2CEF00104BAE
:101B0000992D13050480212537150140092513055A
:101B10000440F52B3745014013050580EF00503791
:101B2000716513050520EF00504FB707002083A50E
:101B3000070C373500001305053BEF1060345529BD
:101B4000AA85373500001305053CEF1060333734A4
:101B50000140130504C0EF00B00D0146C145130557
:101B6000900CEFF02F95B70402401385840579217E
:101B7000370600209306E003930544C313060603CB
:101B800013858405EFF06FAA0546130504C093057D
:101B90000010EF0010298545130504C0EF007024E4
:101BA00037250140130505406D24EFF04FC4138520
:101BB0000403A921EFF00FD637350140EF00407F35
:101BC000EFE05F8913054006EF00904137040020E5
:101BD000EFF0BFCD99650965938505DC13050571A7
:101BE000EFF0EFB48347C40A81E7EFF05FC9CDB7E8
:101BF000EFF0BFDDEFF0BFE96545EF00703EDDB708
:101C0000EFE20FCA371402401C403707FFF861119A
:101C100093E717001CC05C404145F98F5CC01C4035
:101C20003707F7FE7D17F98F1CC01C403707FCFFF4
:101C30007D17F98F1CC05C4041777D17F98F5CC020
:101C4000B7079F001CC431251C4C3706020093E7E0
:101C500007021CCCB717014003A707409386074033
:101C60001377F7F023A0E74003A70740136707089F
:101C700023A0E74089479CCA02C002C21C4C370718
:101C80000140A16693E717001CCC5C43D58F5CC371
:101C90001C404167B7160240D98F1CC009679C429F
:101CA000F18F3EC2824785073EC0924781E7824757
:101CB000E397E7FEB71702409C431397E700635989
:101CC000070685473EC2124785476310F706B727C8
:101CD00002409843C176FD16719B98C398431367E1
:101CE000170098C3B7170240D843D8C3D843758F9D
:101CF000D8C3D843C166558FD8C39843B7060001EF
:101D0000558F98C3984393166700E3DD06FED843CA
:101D1000B7160240719BD8C3D84313672700D8C3B6
:101D20002147DC42B18BE39EE7FE21016FE0EFB774
:101D300002C251BFEFE2CFB6371702405C4337040F
:101D400000209146B18B1304040C6385D700A14693
:101D50006382D704B7376E01938707601CC0B7163C
:101D60000240DC420840918313F7F700B7070020D8
:101D70009387070BBA978C23DC4293F5F50F93F703
:101D800007083357B50081E7EFE0CFB42A8718C0C2
:101D90006FE0AFB15C43B777DC02938707C07DBFCC
:101DA00001A097F1FF1F938161B4138181F11305A5
:101DB000000A97E5FF1F9385E52417E6FF1F13062A
:101DC000662463FAC5008322050023A0550011058F
:101DD0009105E3EAC5FE171500001305256097E598
:101DE000FF1F9385252217E6FF1F1306263063FA8F
:101DF000C5008322050023A0550011059105E3EAE3
:101E0000C5FE17E5FF1F1305652E93854194637783
:101E1000B500232005001105E36DB5FEB7220000D3
:101E200093820288739002308D427390428097E2D1
:101E3000FFFF9382221D93E2320073905230EFF045
:101E40003FDC970200009382A2CA739012347300A1
:101E50002030B727014093870740631EF500EFE26B
:101E60002FA485451305002031238145130500204B
:101E700011236FE08FA382805C413707F1FF1307C6
:101E8000F7EF7D8FDC419441A207D58FD98F5CC1DC
:101E90001C4537F7F1FF1307D77FD4457D8F9C4949
:101EA000D58F94458606D58FD98F1CC55C553707CD
:101EB00010FF7D177D8FDC29FD1793F7F70FD207F1
:101EC000D98F5CD582801C4589C593E717001CC556
:101ED0008280F99BEDBF1C4589C593E707101CC59F
:101EE000828093F7F7EFE5BF1C4593E787001CC599
:101EF000828008450D81058982801C4593E7470053
:101F00001CC5828008450981058982801C4591C5D0
:101F100037075000D98F1CC582803707B0FF7D1767
:101F2000F98FD5BFA54763F8B704138765FF9317EB
:101F300017008322C500BA971D433313F3001343E0
:101F4000F3FF33735300B397F600B3E767005CC544
:101F5000994763E3C7047D16931726003E965859A8
:101F6000FD47B397C70093C7F7FFF98FB395C50037
:101F7000DD8D4CD982809397150003230501AE9720
:101F80001D473317F7001347F7FF33776700B39701
:101F9000F6005D8F18C96DBFB14763E2C7026516D1
:101FA000931726003E961859FD47B397C70093C76D
:101FB000F7FFF98FB395C500DD8D0CD982804D16E2
:101FC0001317260054553A96FD47B397C70093C799
:101FD000F7FFF58FB395C500DD8D4CD582805C4150
:101FE000370700FA7D17F98F5CC15C41DD8D4CC16C
:101FF0008280B7F7FF1F03A5477C82801C414167A1
:102000007917F98F1CC12320050023220500232402
:102010000500B707024023260500138787006317D2
:10202000E500D8431367F700D8C382801387C70140
:102030006316E500D8431367070FFDB7138707033F
:102040006318E500D8438566938606F0558FE9BF8F
:10205000138747046315E500D843BD66C5BF1387E2
:1020600087056316E500D843B7060F00C5B7138789
:10207000C7066316E500D843B706F000C1BF138753
:102080000708E314E5FAD843B706000FC1B71841B3
:10209000E177BD0794517D8F9C45D58F9449D58FAD
:1020A000D449D58F944DD58FD44DD58FD451D58F5C
:1020B0009455D58FD98F1CC1DC455CC19C411CC592
:1020C000DC415CC582801C4189C593E717001CC1B7
:1020D000828041677917F98FDDBF1C4101C6DD8D14
:1020E0000CC1828093C5F5FFFD8DDDBFB7070240AF
:1020F0009C437D8D3335A0008280EFD27FFAEFF0D4
:10210000FFFE6FD09FFAB7070240C8C38280EFD2AC
:102110003FF9B717014013870780631AE50085452B
:102120001145892C81451145B1246FD01FF86318E2
:10213000F500854541453D2C81454145F5B79387DF
:102140000740E314F5FE854513050002252481456B
:1021500013050002D1BFEFD2BFF485450545192C08
:1021600081450545012C6FD05FF4944593F7060136
:1021700093F2F60081C7DC41B3E2F20083D305009D
:1021800093F7F30FA5C303230500611122C226C0F4
:102190008147130480029304800405473316F70037
:1021A00033F7C3006312E602939527003D473317C8
:1021B000B7001347F7FF33736700B395B20033E3FB
:1021C0006500639D860050C985072147E397E7FCBA
:1021D000124423206500824421018280E39696FE0A
:1021E00010C9DDB7828048456D8D3335A0008280EF
:1021F0000CC982804CC9828023AEA192828083A6C2
:10220000C193854718216390F6021C31639CD70265
:102210003C219A0793E707F8B7E600E093F7F70F3A
:10222000BA962380F6408546935757003397E600C9
:10223000544189CE938707048A07B7E600E0B69732
:1022400098C38280EDF33C219A07F9B7938707067C
:10225000E5B7371702401C430E0593F777F05D8D05
:1022600008C38280B7160240DC4241771307F77F2C
:10227000F98F5D8DC8C28280EFD29FE2371702408E
:102280005C4391462A84B18B6385D700A146638065
:10229000D708B7376E01938707601CC0B716024096
:1022A000DC42918313F7F700B70700209387870D6F
:1022B000BA978C23DC42184093F5F50F93F7070883
:1022C0003355B70081E73A85EFD0DFE048C008C456
:1022D00048C4B7170240DC438D46AD83FD8B13D74E
:1022E00037008A07F18BD98F13F6370113F73700C0
:1022F00063F4C600138747FFB70700209387470C96
:10230000BA978C23EFD01FDD08C86FD01FDA5C436B
:10231000B777DC02938707C049B799C537170240E2
:102320005C4B5D8D48CB8280B7170240D84B13457C
:10233000F5FF798DC8CB828099C5371702401C4FB5
:102340005D8D08CF8280B7170240984F1345F5FF87
:10235000798D88CF828099C5371702405C4F5D8D9B
:1023600048CF8280B7170240D84F1345F5FF798DCB
:10237000C8CF828099C5371702405C475D8D48C73A
:102380008280B7170240D8471345F5FF798DC8C73B
:10239000828099C5371702401C4B5D8D08CB828027
:1023A000B7170240984B1345F5FF798D88CB828093
:1023B000B7370140631EF500EFD29FCE8545056516
:1023C000EFF05FFB81450565EFF0DFFA6FD0FFCDE1
:1023D00082801A218D6793870704B6217D8F9E2105
:1023E000D58FD621D58FF621D58F9625D58FB625B9
:1023F000D58FD625D58FF625D58FD98F1EA19E29AD
:102400001EA982801E2189C593E707041EA1828030
:10241000C207C18393F7F7FBC207C183C5BF5E2123
:1024200001C6DD8D4EA1828093C5F5FFFD8DDDBF18
:10243000EFD21FC7B7370140938707C0631FF5006E
:102440000564854513050480EFF0DFF2814513052F
:102450000480EFF03FF26FD05FC5B7070040E31C88
:10246000F5FE85450545EFF0DFF281450545EFF0C6
:102470005FF2D5B71E2137370140130707C0C207E7
:10248000C1836306E500370700406316E500BA2103
:1024900093F7F7F8D98FFA2193F7F7CFC207C183E3
:1024A000D98F1EA1DE215EB59E211EB5B737014032
:1024B000938707C06314F5009C251EB985475EA964
:1024C00082801E31922103D32500C207C183F99B6C
:1024D000C207C1831EB11E3156211A2DC207C18306
:1024E000420741831377C7F8518F9225F59BC206A7
:1024F00033666600D18F37360140130606C0C182AD
:102500006310C502B225DD9B03D3E500D18FD22134
:10251000ED9B93F6F6CFD18FD22533666600D18E30
:1025200056A11AADFA2158D91EB182801E316577A5
:102530001307F7CFC207C183BD9BC207C1831EB17A
:102540001E31562103D38500C20713960601162DAE
:10255000C18393F7F7FD758F96214182A206558FAF
:10256000B62142074183B3E666009206D58FB7369F
:102570000140C207938606C0C183631ED502B625FB
:1025800093F7F7F703D3C5009206D58FD621C2077C
:10259000C183920693F7F7FBD58FFD769386F63FBE
:1025A000F18EF225C207C183336666000A06D18E1A
:1025B00013960601418252A11AADFA2118DD1EB10F
:1025C0008280BA219E21D98FDA21D98FFA21D98F21
:1025D0009A25D98FBA25D98FDA25D98F2312F504F8
:1025E00082801E2189C593E717001EA18280C20741
:1025F000C183F99BC207C183CDBF8357450491C5F1
:102600002167D98F2312F5048280C607C583DDBFF9
:102610005E2501C6DD8D4EA5828093C5F5FFFD8D3B
:10262000DDBFEFD2FFA7EFF0BFFE6FD01FA81E21C6
:1026300089C593E707081EA18280C207C18393F76B
:10264000F7F7C207C183C5BF1E2DC207C183DD9B3B
:10265000DD8D0EAD82801A2DFD779387F77FF98F80
:10266000A205CD8FC207C1831EAD82801E294A25D7
:10267000ED8F4205418189C76D8D3335A000828081
:102680000145828093C5F5FFC205C1810EA98280F4
:10269000B747014093870780631EF500EFD25FA024
:1026A00085451165EFF01FCD81451165EFF09FCC99
:1026B0006FD0BF9F8280EFD2BF9E1629F577FD179E
:1026C000F58FF621DA252111D58F1EA95625FD7724
:1026D0009387379FF58FD6212A842EC0D58F9625D4
:1026E000D58FB625D58F5EA55E29C207C18393F726
:1026F000F7CF5D8F5AA94800EFF01FB8B7470140E8
:102700009387078082456312F406C2475A241395C3
:1027100017003E9542070E0541873E958C41635850
:1027200007048605EFD01F9B930540062AC0EFD013
:102730007F9A824793144500930540063E85EFD06B
:102740003F9C5E24C207C18763D507020E0593052F
:10275000400613052503EFD0FF971D89C98CC204DD
:10276000C18006A461016FD05F94B24745B78A0566
:1027700055BF12059305400613052503EFD09F951D
:102780003D89E9BF91C55E250967D98F5EA5828025
:102790005A25F977FD17F98FD5BF93F5F51F4EA18F
:1027A00082800A216D8D3335A0008280EFD25F8F49
:1027B000B707002003A5070CB7157A0093850520FD
:1027C000EFD05F911375F50F2381A19493175500F6
:1027D000898F8A073E950E052390A1946FD0FF8CB8
:1027E000EFD21F8C37F400E05C40AA85F99B5CC0F7
:1027F00003D50194EFD01F8C08C8232404001C408B
:1028000093E717001CC0B7F700E0D843058B75DFCE
:102810009843799B98C36FD05F89EFD27F882A84D1
:1028200011651111854513050502EFF0FFB09307FF
:1028300000027C80371501408D473EC28A85E14702
:10284000130505403EC4EFF05F9222C637440140B5
:10285000B70708006C00130504803ECA02C8231C99
:102860000100EFF05FE5854513050480EFF09FF16F
:1028700071016FD09F83EFD2BF827111AE8401448A
:10288000635FC402B7470140138707803A85930509
:10289000000432C0EFF0FFF0B74701401387078014
:1028A00002466DD5338784008305070013850780B2
:1028B0000504C205C181EFF05FEE0246D1B7328553
:1028C00011016FD08FFE411106C62EC00DCD1841EB
:1028D000AA8705C358417D5511CB8546631BD70098
:1028E00098472300070023A207000545B240410195
:1028F00082809847824614A39847050798C7D84313
:102900007D17D8C3DDB705468A85EFF0DFF6F1BF46
:10291000011122CC2EC206CE26CA2A8481479305F5
:102920000002634506029245BE95838505008DE54C
:1029300063D8C70263D4E702198E1305000293F52A
:1029400026002AC089C501E7930500032EC0858AA9
:1029500081449DEAB28415A08507F1B71D8EF1BFB1
:102960000146E1BF824522853AC832C63EC4EFF037
:102970009FF5A24732464247FD14E34590FEB284DC
:10298000635306008144058E63C7E702A68792461B
:10299000338797403697830507009DEDB2846346E1
:1029A0009004635306000146F2406244D24433056A
:1029B000F600056182801D8FBA879305000322858A
:1029C00032C83EC63AC4EFF01FF0B2472247424633
:1029D000FD17E5F7BA945DBF228532C63EC4EFF01D
:1029E0009FEEA247324685075DB78245228532C4F5
:1029F0003EC2EFF05FEDFD14224692474DB73971AC
:102A000006DE22DC26DA3EC232833A8691ED924619
:102A10009307000301476C08FC86EFF07FEFF2504C
:102A20006254D25421618280AA843684AE8791CACE
:102A3000294701446317E30063D50500B307B0409D
:102A400005448646A309010213073103938666FCF9
:102A500036C49A853E8532CA3AC81AC63EC0EFD0FF
:102A60002FEAA546824732434247524663D4A60026
:102A7000A2463695130505039306F7FFA30FA7FE9D
:102A80009A853E8532CC3ACA1AC83EC636C0EFD0C7
:102A90006FE4B24742435247624663FD670409CC84
:102AA00029CE9247898BB1CB9305D002268532C4BB
:102AB000EFF07FE122467D169247918B85C706474E
:102AC0009307100632C49305000326856311F704AB
:102AD000EFF07FDF930580072685EFF0DFDE2246EB
:102AE000090479161647924682452685EFF05FE283
:102AF000229535B7AA870247A9BF82469307D0021D
:102B00000144A38FF6FE9307E7FF3EC075B7EFF0D1
:102B10009FDB93058005C9B701458280014582800E
:102B2000130181FD22D026CE06D22AC4AE82328481
:102B300002C681448385020091EDA24789C7814581
:102B40003E85EFF05FD8925002542685F24413017F
:102B500081028280930750026389F500224516C8DE
:102B60008504EFF05FD6C24205A083871200138769
:102B70001200639DB7002245930550023AC8EFF05A
:102B80009FD442478504BA8285026DB7DDD793068C
:102B9000B0026389D70463C8F600930630026386E7
:102BA000D704814705A09306D002638AD700930615
:102BB0000003E398D7FE13872200894721A01387DB
:102BC00022008547830607001306B0026383C6040C
:102BD0006341D60213063002638BC602BA820145F6
:102BE000A54681A0138722006DBF1387220091475D
:102BF000D1BF1306D0026389C60013060003E39F0A
:102C0000C6FC93E7270031A005078547C1BF93E7BE
:102C100047000507E1B713162500329506053A95DA
:102C2000850203860200130706FD9375F70FE3F490
:102C3000B6FE1307E0029946631EE6008502814650
:102C4000A54503860200130606FD1377F60F63F50C
:102C5000E50236C6038702001306A006630DC70A05
:102C60006343E6021306C0046307C70A130680061F
:102C7000630CC70881452DA813972600BA968606CF
:102C8000B29685027DBF130640076306C708130688
:102C9000A0076302C7081306C0068145631AC70070
:102CA000038612008D456314E60085029145850276
:102CB00003860200930300061307100663C4C300D3
:102CC000130710049303700663C4C30693035006EE
:102CD000635676189303700463C1C30493055004CC
:102CE000635EB61613073004E310E6EA1840930358
:102CF000440016CA230CE1001EC8A30C01000147C2
:102D0000BE862A862C0849A8038612008145E31155
:102D1000E6FA890271BF8502B1BF93063006E30768
:102D2000D6FC63CFC606930680056303D602A9BD11
:102D3000930630076304D60463CBC6029306F006FD
:102D40006305D60E9306000793E74700E31ED6E21D
:102D500091466392D50C930384000C40504016CAF0
:102D60003AC23EC01EC8AA870147C14681A8930641
:102D70005007630BD6069306800745BF1840B73649
:102D80000000930344009385063D11C3BA85324782
:102D900016CA1EC8BE862A862245EFF07FB715A048
:102DA00091466395D502930384000C40504016CAA7
:102DB0003AC23EC01EC8AA870547A9462245EFF081
:102DC000BFD5C243AA941E84D2427DBBB2460C40FA
:102DD00016C836C23AC011042A87854629462245BC
:102DE000EFF0FFC1AA9441B39146639DD5009303D0
:102DF00084000C40504016CA3AC23EC01EC8AA8782
:102E0000014765BFB2460C4016C836C23AC011042D
:102E10002A878146E1B7B24616C80C40414636C201
:102E20003AC011042A8781465DBF9146639ED50052
:102E3000930384000C40504016CA3AC23EC01EC8DC
:102E4000AA870147A1469DBFB2460C4016C836C2AC
:102E50003AC011042A878146214651B70C40130617
:102E6000840040403AC22A87224532C83EC02286AA
:102E7000B687A94616CAEFF07FCAAA944244A9B7FA
:102E80001301C1FD2EC832CAAA851008014506C625
:102E900036CC3ACE3ED032C0EFF09FC8B2401301DC
:102EA00041028280130141FD32CE3ED42AC6700811
:102EB000FD57480006CC36D03AD202C23EC432C0DA
:102EC000EFF01FC6E2401301C10282800000000043
:102ED0000000000000001010101010100010000082
:102EE0002828280000000000000024247C24487CBE
:102EF00048480000385450381454543810002054B6
:102F00005830285414080000102828103448483439
:102F10000000101010000000000000000810202029
:102F20002020202010082010080808080808102079
:102F300010381028000000000000000010107C1065
:102F40001000000000000000000000101010000041
:102F50000000003800000000000000000000001029
:102F600000000808101010102020000038444454BD
:102F7000444444380000103050101010101000006D
:102F8000384444040810207C000038440418040429
:102F90004438000008182828487C080800007C40B5
:102FA00040780404443800003844407844444438AD
:102FB00000007C0408101020202000003844443811
:102FC000444444380000384444443C04443800003D
:102FD00000001000000000100000000000100000C1
:102FE0000010101000000C3040300C0000000000F9
:102FF000007C007C000000000000601804186000E5
:1030000000003844040810100010000038444C54EC
:103010005C404038000010282828287C44440000E8
:103020007844447844444478000038444040404068
:1030300044380000704844444444487000007C40D8
:10304000407C4040407C00007C4040784040404014
:103050000000384440405C44443800004444447C10
:103060004444444400003810101010101038000080
:1030700004040404040444380000444850605048E8
:1030800048440000404040404040407C0000446CC8
:103090006C5444444444000044646454544C4C44D0
:1030A00000003844444444444438000078444444D4
:1030B00078404040000038444444444454380400BC
:1030C0007844444478484844000038444030080478
:1030D000443800007C101010101010100000444400
:1030E00044444444443800004444442828281010F0
:1030F000000044445454546C2828000044282810EC
:103100001028284400004444282810101010000003
:103110007C0408101020407C0000181010101010C3
:103120001010101820201010101008080000301087
:10313000101010101010103010282844000000004B
:103140000000000000000000000000FE2010000051
:10315000000000000000000038443C444C340000F3
:1031600040405864444464580000000038444040E3
:10317000443800000404344C44444C340000000043
:1031800038447C40443800000C107C1010101010A3
:1031900000000000344C44444C34047840405864EF
:1031A000444444440000100070101010101000003F
:1031B000100070101010101010E040404850605087
:1031C0004844000070101010101010100000000093
:1031D0007854545454540000000058644444444407
:1031E00000000000384444444438000000005864A3
:1031F0004444645840400000344C44444C3404047B
:10320000000058644040404000000000384430084E
:1032100044380000202078202020201800000000E2
:10322000444444444C3400000000444428282810FE
:10323000000000005454546C28280000000044286A
:10324000101028440000000044442828101010608A
:1032500000007C081020407C000018101010202076
:103260001010101810101010101010101010301036
:103270001010080810101030000000744C000000FE
:10328000000000000B14081E221D181E1B1A242B00
:103290000606020F09160920211B131917151E2BEC
:1032A0000405020E414443312D4348373A000000E3
:1032B000253464006D562000434833325630303395
:1032C00020444D412D54494D312D5350574D2C2004
:1032D000444D412D5350492D494C49393334310027
:1032E000312E2052616E646F6D20446F74000000B7
:1032F000322E20486F72697A6F6E74616C204C694F
:103300006E650000332E20566572746963616C33FC
:10331000204C696E65000000342E2052616E646F8F
:103320006D204C696E650000352E2043656E746516
:103330007265642052656374616E676C650000009D
:10334000362E2052616E646F6D2052656374616E1B
:10335000676C6500372E2046696C6C656420526589
:103360006374616E676C6500382E204D6F76652042
:1033700052656374616E676C65000000392E2052DF
:10338000616E646F6D20436972636C6500000000BC
:1033900031302E2046696C6C656420436972636C21
:1033A0006500000054494D323A0000006D73000082
:1033B00053797374656D436C6B3A25640D0A000094
:1033C0004368697049443A253038780D0A00000096
:0833D000286E756C6C290000E9
:1033D800FFFF000000000F00E003EF0300780F7804
:1033E800E07B18C6EF7B1F00E007FF0700F81FF817
:1033F800E0FFFFFF20FDE5AF18FC00000100000022
:1034080005000A000F00140019001E002200270002
:103418002C003000340039003D00410044004800D1
:103428004B004F0053005500570059005B005D00EA
:103438005F00600061006300630064006400640072
:1034480063006300610060005F005D005B0059007D
:103458005700550053004F004B00480044004100FE
:103468003D003900340030002C00270022001E00E7
:10347800190014000F000A000500000001000000F8
:1034880001020304050607080102030405060708EC
:10349800006CDC020204060804080C10081018204E
:1034A8001020304020406080010203040506070810
:0834B8000102030405060708E8
:00000001FF
